:020000040000FA
:0608000046EF39F0120082
:02080600FEFFF3
:0608080070EF1DF012006C
:02080E00C250D6
:08081000020B01E0010E1200D1
:0608180070EF2EF012004B
:02081E000F00C9
:10082000994800001504000001000000B6730000A4
:100830005C0300001F000000AA730000CF0300004B
:100840000C000000A0730000E50300000A00000097
:100850000F730000FF030000010000009B73000005
:10086000FA030000050000008273000094030000FA
:10087000190000007E73000008040000040000005E
:1008800069730000AD030000150000005073000004
:100890007B0300001900000006080000FE020000B3
:1008A000020000004D73000012040000030000006D
:1008B0004A7300000F040000030000001F730000D3
:1008C000310300002B0000001A730000F503000044
:0408D000050000001F
:0C08D400B5EC0DF0E652FA0EDB50080AFD
:1008E00001E1F2D00F0A01E1A2D0010A53E0030AAC
:1008F00001E042D1C7EC0DF02CAE02D02D682E687D
:1009000076EC0EF0020EA6EC0EF0E8AE02D0323419
:1009100002D07EEC0DF015E3B3C333F0B4C334F072
:10092000356A366A34AE02D035683668020E0CEC91
:100930000DF0E8AE02D0363402D087EC0DF001E3C2
:100940003ED1C7EC0DF02CAE02D02D682E6835ECF0
:100950000DF0E8AE02D01F3402D028EC0DF005E215
:10096000DF6A0301010EAD6F07D1C7EC0DF02CAEAD
:1009700002D02D682E6844EC0DF0E8AE02D01F3492
:1009800002D028EC0DF001E21AD1010EDF6E030156
:10099000AD69F2D0CEEC0DF02CAE02D02D682E68F1
:1009A00031EC0DF0E8AE02D0323402D07EEC0DF026
:1009B00015E3B5C333F0B6C334F0356A366A34AEE6
:1009C00002D035683668050E0CEC0DF0E8AE02D0AA
:1009D000363402D087EC0DF001E3F1D0CEEC0DF00F
:1009E0002CAE02D02D682E6835EC0DF0E8AE02D0AA
:1009F0001F3402D028EC0DF005E2DF6A0301010E7E
:100A0000AE6FBAD0CEEC0DF02CAE02D02D682E68B1
:100A100044EC0DF0E8AE02D01F3402D028EC0DF00B
:100A200001E2CDD0010EDF6E0301AE69A5D0D5EC99
:100A30000DF02CAE02D02D682E6831EC0DF0E8AE32
:100A400002D0323402D07EEC0DF015E3B7C333F0A0
:100A5000B8C334F0356A366A34AE02D035683668C9
:100A6000050E0CEC0DF0E8AE02D0363402D087EC67
:100A70000DF001E3A4D0D5EC0DF02CAE02D02D6822
:100A80002E6835EC0DF0E8AE02D01F3402D028EC11
:100A90000DF005E2DF6A0301010EAF6F6DD0D5ECFA
:100AA0000DF02CAE02D02D682E6844EC0DF0E8AEAF
:100AB00002D01F3402D028EC0DF001E280D0010EEC
:100AC000DF6E0301AF6958D0040E0301B15D0BE185
:100AD000B9C3E6FFBAC3E6FFB10EE66E470EE66E97
:100AE000000E9EEC0DF0DCEC0DF02CAE02D02D686B
:100AF0002E6831EC0DF0E8AE02D0323402D07EEC3C
:100B00000DF014E3B9C333F0BAC334F0356A366A72
:100B100034AE02D035683668050E0CEC0DF0E8AE48
:100B200002D0363402D087EC0DF049E2DCEC0DF057
:100B30002CAE02D02D682E6835EC0DF0E8AE02D058
:100B40001F3402D028EC0DF004E2DF6A0301B06923
:100B500013D0DCEC0DF02CAE02D02D682E6844ECE6
:100B60000DF0E8AE02D01F3402D028EC0DF027E3E0
:100B7000010EDF6E0301B06FDF040CE1F90EDB50F4
:100B80007F0FDF6EFA0EDB50080823E18750080B59
:100B900020E015D0FA0EDB50050803E18750010B69
:100BA0000EE1FA0EDB50060803E18750020B07E165
:100BB000FA0EDB50070805E18750040B02E07F0EB8
:100BC00009D0F90EDBCFE6FF7F0EE552D880E7545F
:100BD000DF6EDF50E552BAEF0DF0C2EC0EF0FB0E07
:100BE000DB50070A3EE0010A1FE0030A59E172ECFC
:100BF0000EF002E6BEEC0DF004E20301010EAD6F53
:100C000009D021EC0DF02C3402E350EC0EF002E29E
:100C10000301AD6972EC0EF002E6BEEC0DF040E2AD
:100C20008750010B3DE04FD072EC0EF002E6BEECB7
:100C30000DF004E20301010EAE6F09D021EC0DF0BE
:100C40002C3402E350EC0EF002E20301AE6972ECC8
:100C50000EF002E6BEEC0DF023E28750020B20E01E
:100C600032D072EC0EF002E6BEEC0DF004E20301AD
:100C7000010EAF6F09D021EC0DF02C3402E350ECE3
:100C80000EF002E20301AF6972EC0EF002E6BEEC78
:100C90000DF006E28750040B03E00301315113E12C
:100CA00072EC0EF002E6BEEC0DF00FE3FD0EDBCFB2
:100CB0002DF0FE0EDBCF2EF02E3407E32D508608EC
:100CC000FF0E2E5402E37F0E58D072EC0EF004E6B5
:100CD0007F0E2B5C000E2C580BE2B5EC0EF01D685D
:100CE0001E682BC022F02CC023F0F5EC0DF006D0CE
:100CF000B5EC0EF02BC0DEFF2CC0DDFFFC0EDB5090
:100D00002B6E2C6A1D6E2CC01EF0DECF22F0DDCFC4
:100D100023F0F5EC0DF0640E2B6E2C6A226E2CC0C5
:100D200023F0DECF1DF0DDCF1EF03EEC36F01DC00F
:100D3000DEFF1EC0DDFF72EC0EF004E67F0E2B5CC2
:100D4000000E2C580DE21D681E68DECF22F0DDCFAC
:100D500023F098EC36F01BC02BF01CC02CF004D014
:100D6000DECF2BF0DDCF2CF07F0E2B26000E2C22B9
:100D70002BC0DEFF2CC0DDFFDF50D9CFE1FFBAEF83
:100D80000DF0B5EC0DF0E6520301B12B100EB15D84
:100D900001E1B16B0F0EB15D02E15DEC0DF087A0DA
:100DA00002D02AEC33F087A202D057EC33F087A4AC
:100DB00002D084EC33F087A602D0B1EC33F0780E89
:100DC0000301335D03E33351860803E20301010E9F
:100DD000BB6F780E0301345D03E33451860803E2F0
:100DE0000301010EBC6F780E0301355D03E335513D
:100DF000860803E20301010EBD6F030131510301B7
:100E0000BE5D05E031C3BEF3BB6BBC6BBD6BBB0508
:100E100004E0BC0502E0BD0503E10201BD8D02D086
:100E20000201BD9D03013151050A01E17BD1010A97
:100E300001E11ED1070A01E1C0D0010A61E0030A05
:100E400004E0010A01E0C7D1C4D136C32BF037C397
:100E50002CF076EC0DF0E8AE02D02C3402D090EC01
:100E60000DF001E2B6D1020E03012E6A36252D6E79
:100E7000375153EC0DF0E8AE02D0B43502D058EC47
:100E80000DF001E2A6D140C32BF041C32CF090EC51
:100E90000EF0E8AE02D02C3402D0E3EC0DF001E20B
:100EA00098D1050E03012E6A40252D6E415153EC59
:100EB0000DF0E8AE02D0B43502D058EC0DF001E2EE
:100EC00088D14AC32BF04BC32CF094EC0EF0E8AE63
:100ED00002D02C3402D090EC0DF001E27AD1050E54
:100EE00003012E6A4A252D6E4B5153EC0DF0E8AEEE
:100EF00002D0B43502D058EC0DF001E26AD110D125
:100F000038C32BF039C32CF076EC0DF0E8AE02D0EC
:100F10002C3402D090EC0DF001E25BD1020E030103
:100F20002E6A38252D6E395153EC0DF0E8AE02D003
:100F3000B43502D058EC0DF001E24BD142C32BF096
:100F400043C32CF090EC0EF0E8AE02D02C3402D06B
:100F5000E3EC0DF001E23DD1050E03012E6A4225BE
:100F60002D6E435153EC0DF0E8AE02D0B43502D0F3
:100F700058EC0DF001E22DD14CC32BF04DC32CF0F9
:100F800094EC0EF0E8AE02D02C3402D090EC0DF0D0
:100F900001E21FD1050E03012E6A4C252D6E4D5125
:100FA00053EC0DF0E8AE02D0B43502D058EC0DF0A1
:100FB00001E20FD10201BD8F0AD13AC32BF03BC32E
:100FC0002CF076EC0DF0E8AE02D02C3402D090EC90
:100FD0000DF001E2FED0020E03012E6A3A252D6EBD
:100FE0003B5153EC0DF0E8AE02D0B43502D058ECD2
:100FF0000DF001E2EED044C32BF045C32CF090EC91
:101000000EF0E8AE02D02C3402D0E3EC0DF001E299
:10101000E0D0050E03012E6A44252D6E455153EC98
:101020000DF0E8AE02D0B43502D058EC0DF001E27C
:10103000D0D04EC32BF04FC32CF094EC0EF0E8AEA2
:1010400002D02C3402D090EC0DF001E2C2D0050E9B
:1010500003012E6A4E252D6E4F5153EC0DF0E8AE74
:1010600002D0B43502D058EC0DF001E2B2D058D025
:101070003CC32BF03DC32CF076EC0DF0E8AE02D073
:101080002C3402D090EC0DF001E2A3D0020E03014B
:101090002E6A3C252D6E3D5153EC0DF0E8AE02D08A
:1010A000B43502D058EC0DF001E293D046C32BF0DA
:1010B00047C32CF090EC0EF0E8AE02D02C3402D0F6
:1010C000E3EC0DF001E285D0050E03012E6A462502
:1010D0002D6E475153EC0DF0E8AE02D0B43502D07E
:1010E00058EC0DF001E275D050C32BF051C32CF039
:1010F00094EC0EF0E8AE02D02C3402D090EC0DF05F
:1011000068E3050E03012E6A50252D6E515153ECF4
:101110000DF0E8AE02D0B43502D058EC0DF059E332
:10112000020155D03EC32BF03FC32CF076EC0DF0FE
:10113000E8AE02D02C3402D090EC0DF04AE3020E5F
:1011400003012E6A3E252D6E3F5153EC0DF0E8AEA3
:1011500002D0B43502D058EC0DF03BE348C32BF07D
:1011600049C32CF090EC0EF0E8AE02D02C3402D043
:10117000E3EC0DF02EE3050E03012E6A48252D6EDB
:10118000495153EC0DF0E8AE02D0B43502D058EC22
:101190000DF01FE352C32BF053C32CF094EC0EF070
:1011A000E8AE02D02C3402D090EC0DF012E3050E24
:1011B00003012E6A52252D6E535153EC0DF0E8AE0B
:1011C00002D0B43502D058EC0DF003E30201BD8F1C
:1011D00002D00201BD9F03013251FF0A12E0FE0A54
:1011E00003E0010A13E102D087A604D002017F0EBA
:1011F000C86F0CD00201B10EC86F0301010EB06FB1
:1012000005D002015C0EC86F0301B06903013151C2
:10121000050A01E1BCD0010A01E18FD0070A63E0B1
:10122000010A36E0030A18E0010A01E0E3D058ECB5
:101230000EF0E5520201C56F5EEC0EF0E5520201C0
:10124000C66F9EEC0EF0E5520201C76F0301010E5E
:10125000BB6FBC6FBD6FD7D00301BB5104E1050E5E
:10126000F2EC0DF002D058EC0EF0E552E8EC0DF087
:1012700004E1060EF2EC0DF002D05EEC0EF0E55249
:10128000EDEC0DF001E0B0D0070EF2EC0DF0AED0B9
:101290000301BB510AE16EEC0EF0FCEC0DF02CAE3C
:1012A00002D02D682E6889DB03D058EC0EF0E55291
:1012B000E8EC0DF00AE1C6EC0EF003EC0EF02CAEFB
:1012C00002D02D682E6879DB03D05EEC0EF0E5527B
:1012D000EDEC0DF001E088D0CAEC0EF00AEC0EF057
:1012E0002CAE80D07DD00301BB510AE16EEC0EF034
:1012F00011EC0EF02CAE02D02D682E685EDB03D010
:1013000058EC0EF0E552E8EC0DF00AE1C6EC0EF0F8
:1013100018EC0EF02CAE02D02D682E684EDB03D0F8
:101320005EEC0EF0E552EDEC0DF05EE1CAEC0EF075
:101330001FEC0EF02CAE56D053D00301BB510AE186
:101340006EEC0EF026EC0EF02CAE02D02D682E685E
:1013500034DB03D058EC0EF0E552E8EC0DF00AE176
:10136000C6EC0EF02DEC0EF02CAE02D02D682E68DF
:1013700024DB03D05EEC0EF0E552EDEC0DF034E131
:10138000CAEC0EF034EC0EF02CAE2CD029D00301B8
:10139000BB510AE16EEC0EF03BEC0EF02CAE02D02D
:1013A0002D682E680ADB03D058EC0EF0E552E8EC0D
:1013B0000DF00AE1C6EC0EF042EC0EF02CAE02D0BD
:1013C0002D682E68FADA03D05EEC0EF0E552EDECF3
:1013D0000DF00AE1CAEC0EF049EC0EF02CAE02D092
:1013E0002D682E68EADA03D09EEC0EF0E552020179
:1013F000C76F09D03151E66EE66A670EE66E470E9A
:10140000E66E000E9BDBE552B5D3AFDBFE0EDB5084
:10141000050A53E0010A3DE0070A27E0010A11E04E
:10142000030A64E1050EF2EC0DF0E5520201C56F0E
:10143000060ED8DBE5520201C66F070ED3DBE5527C
:1014400052D06EEC0EF0D8DB2CAE02D02D682E6898
:1014500064EC0EF0D8DB2CAE02D02D682E6869EC5F
:101460000EF0D8DB2CAE3ED03BD06EEC0EF0D9DBCC
:101470002CAE02D02D682E6864EC0EF0D9DB2CAEB9
:1014800002D02D682E6869EC0EF0D9DB2CAE2AD084
:1014900027D06EEC0EF0DADB2CAE02D02D682E6871
:1014A00064EC0EF0DADB2CAE02D02D682E6869EC0D
:1014B0000EF0DADB2CAE16D013D06EEC0EF0DBDBC8
:1014C0002CAE02D02D682E6864EC0EF0DBDB2CAE67
:1014D00002D02D682E6869EC0EF0DBDB2CAE02D05A
:1014E0002D682E686ADA0201C76F0AD0FE0EDBCFC4
:1014F000E6FFE66A1A0EE66E470EE66E000E1EDB8B
:101500000301B22B060EB25D0CE3FD0EDBCFE6FF4E
:10151000E66AD60EE66E460EE66E000E0FDB03019F
:10152000B26BFD0EDB500BE0AEEC0EF054C32BF0B3
:1015300055C32CF02D6A2E6A2CAE0DD00AD0AEEC1D
:101540000EF056C32BF057C32CF02D6A2E6A2CAE2A
:1015500002D02D682E6831DA0201C86F0BD3030167
:10156000B12B100EB15D01E1B16B0F0EB15D01E168
:10157000A4DA87A002D02AEC33F087A202D057EC7D
:1015800033F087A402D084EC33F087A602D0B1EC0C
:1015900033F01200C2EC0EF00201E0B902D00301F8
:1015A000BF6B0201E051100B01E1CFD0E051100BF5
:1015B00001E0010E0301BF5D01E1C7D0030131511C
:1015C000050A01E1A2D0010A01E17FD0070A5DE02E
:1015D000010A3BE0030A01E0B8D01BEC33F01BC06A
:1015E00036F31CC037F303018EDBDBCFE6FFE66A80
:1015F000DFCFE6FFE66A1BC0E6FF1CC0E6FF950EE4
:10160000E66E460EE66E000EE66E14EC37F0F56EF2
:10161000090EE15EF550DFCFE6FF800E46DB810E5E
:1016200087DB1BC040F31CC041F30301D5D98A0EF0
:101630003CDB8B0E80DB1BC04AF31CC04BF3030169
:10164000CBD9940E32DB950E7FD01BEC33F01BC050
:1016500038F31CC039F30301BFD9820E26DB830E99
:1016600067DB1BC042F31CC043F30301B5D98C0EEA
:101670001CDB8D0E60DB1BC04CF31CC04DF3030163
:10168000ABD9960E12DB970E5FD01BEC33F01BC06C
:101690003AF31CC03BF303019FD9840E06DB850E91
:1016A00047DB1BC044F31CC045F3030195D98E0EE4
:1016B000FCDA8F0E40DB1BC04EF31CC04FF303015E
:1016C0008BD9980EF2DA990E3FD01BEC33F01BC089
:1016D0003CF31CC03DF303017FD9860EE6DA870E8A
:1016E00027DB1BC046F31CC047F3030175D9900EDE
:1016F000DCDA910E20DB1BC050F31CC051F3030158
:101700006BD99A0ED2DA9B0E1FD01BEC33F01BC0A4
:101710003EF31CC03FF303015FD9880EC6DA890E81
:1017200007DB1BC048F31CC049F3030155D9920ED7
:10173000BCDA930E00DB1BC052F31CC053F3030151
:101740004BD99C0EB2DA9D0E54D90201E0A903D008
:101750000301010EBF6F0201E0BB02D00301C06BA9
:101760000201E051200B2BE0E051200B01E0010EC3
:101770000301C05D24E003013151040A14E0010AB1
:1017800012E0040A04E0030A02E0010A18E1A2ECF4
:1017900033F01BC054F31CC055F303011DD99E0E3A
:1017A00084DA9F0E0BD0A2EC33F01BC056F31CC0A2
:1017B00057F3030111D9A00E78DAA10E1AD902014C
:1017C000E0AB03D00301010EC06FD9CFE1FFD2D14E
:1017D000D9DA050E0301C15D01E3A8D0C12BC10513
:1017E0002DE1800E0ED9810ED4D803012B10366F57
:1017F0002CC037F3820E05D9830ECBD803012B10F2
:10180000386F2CC039F3840EFCD8850EC2D8030182
:101810002B103A6F2CC03BF3860EF3D8870EB9D845
:1018200003012B103C6F2CC03DF3880EEAD8890EC3
:10183000B0D803012B103E6F2CC03FF3020E030102
:10184000C15D2DE18A0EDDD88B0EA3D803012B10CC
:10185000406F2CC041F38C0ED4D88D0E9AD8030162
:101860002B10426F2CC043F38E0ECBD88F0E91D825
:1018700003012B10446F2CC045F3900EC2D8910E7B
:1018800088D803012B10466F2CC047F3920EB9D8AD
:10189000930E7FD803012B10486F2CC049F3030E21
:1018A0000301C15D2DE1940EACD8950E72D80301F1
:1018B0002B104A6F2CC04BF3960EA3D8970E69D805
:1018C00003012B104C6F2CC04DF3980E9AD8990E33
:1018D00060D803012B104E6F2CC04FF39A0E91D895
:1018E0009B0E57D803012B10506F2CC051F39C0E48
:1018F00088D89D0E4ED803012B10526F2CC053F385
:10190000040E0301C15D12E19E0E7BD89F0E41D8EB
:1019100003012B10546F2CC055F3A00E72D8A10EEA
:1019200038D803012B10566F2CC057F3D9CFE1FFE5
:1019300021D11BD9E652FE0EDB50080A1EE00F0A29
:1019400014E0010A0AE0030A21E187B01DD0610E0C
:10195000DF6E0301010EAD6F19D087B215D0610E95
:10196000DF6E0301010EAE6F11D087B40DD0570E9C
:10197000DF6E0301010EAF6F09D087B605D05C0E94
:10198000DF6E0301B06902D07F0E01D0DF50E55257
:10199000F1D0F1D9E76E010EE7CFDBFFDB502B6E04
:1019A0002C6AFF0E2B16000E2C162BC02CF02B6A67
:1019B000DFCF2DF0FF0E2D1412002BC0E6FF2CC040
:1019C000E6FF2DC0E6FF2EC0E6FF6AEC04F0F56EE0
:1019D0000E0EE15EF550120096D9DFCFE6FF120041
:1019E000E66EE668E668E668E66EE668E668E6687B
:1019F0001200E66EE66AA7EC35F0E552E552E552D4
:101A00001200B9D9DF6E1200E66EE66AEDEC05F061
:101A1000E552E552E5521200376E386A396A3A6A81
:101A2000D950FB0FE96EFF0EDA20EA6EEE50372632
:101A3000EE503822EE503922EE503A223A50361803
:101A40001200FD0EDBCF2BF0FE0EDBCF2CF01200D0
:101A50001C502B5C1D502C581E502D581F502E58BA
:101A6000120044D9050EA6EF0EF0FB0EDBCF1CF0E2
:101A7000FC0EDBCF1DF0FD0EDBCF1EF0FE0EDBCF2C
:101A80001FF02E501F181200F10EDBCF1CF0F20ECB
:101A9000DBCF1DF0F30EDBCF1EF0F40EDBCF1FF01B
:101AA0002E501F1812002E2203012E50B4191200BE
:101AB000B3512D5CB4512E5812001BEC33F01BC0F7
:101AC000B3F31CC0B4F348EC33F01BC0B5F31CC037
:101AD000B6F375EC33F01BC0B7F31CC0B8F3A2EC3F
:101AE00033F01BC0B9F31CC0BAF31200020E2B5E18
:101AF000000E2C5A0301B4512C1812002F502B5CED
:101B000030502C5831502D5832502E58120033502E
:101B1000375C345038583550395836503A581200DE
:101B20002B50B35D2C50B4591200050E2B5E000EE5
:101B30002C5A1200010EDBCFE6FF1200E66E14EC09
:101B400037F0F56E050EE15EF55012001E0EE66EE2
:101B5000050EE66E12001E0EE66E060EE66E120012
:101B6000280EE66E070EE66E1200D9CFE6FFE1CF33
:101B7000D9FF1200E552E7CFD9FF1200780E2B5C97
:101B8000000E2C581200E66E1E0EE66E1200B3C355
:101B90002BF0B4C32CF02D6A2E6A1200B5C32BF0C3
:101BA000B6C32CF02D6A2E6A1200B7C32BF0B8C34F
:101BB0002CF02D6A2E6A1200B9C32BF0BAC32CF098
:101BC0002D6A2E6A12002B50B55D2C50B6591200AA
:101BD0000201C56F0301BC5112000201C66F03016F
:101BE000BD511200E66E99EF0CF098EC36F01BC078
:101BF000DEFF1CC0DDFF120038C32BF039C32CF010
:101C00002D6A2E6A120042C32BF043C32CF02D6ABA
:101C10002E6A12004CC32BF04DC32CF02D6A2E6A95
:101C200012003AC32BF03BC32CF02D6A2E6A12002F
:101C300044C32BF045C32CF02D6A2E6A12004EC30C
:101C40002BF04FC32CF02D6A2E6A12003CC32BF0F0
:101C50003DC32CF02D6A2E6A120046C32BF047C3F9
:101C60002CF02D6A2E6A120050C32BF051C32CF0B9
:101C70002D6A2E6A12003EC32BF03FC32CF02D6A52
:101C80002E6A120048C32BF049C32CF02D6A2E6A2D
:101C9000120052C32BF053C32CF02D6A2E6A12008F
:101CA0002B508608FF0E2C541200A3DE9AEF0DF085
:101CB000050E69DF0301335104EF0DF0060E63DFFB
:101CC0000301345104EF0DF078DE0201C56FC6EF59
:101CD0000EF073DE0201C66FCAEF0EF0E30E80DE77
:101CE000A6EF0DF0AEDED8902C501200FB0EDBCF2D
:101CF0002FF0FC0EDBCF30F0FD0EDBCF31F0FE0E0F
:101D0000DBCF32F012001B50DF6E1CC02BF02C6AB0
:101D1000FF0E2B16000E2C16010E2BC0DBFF12003F
:101D200004DFB6512C18120000DFB4512C18120039
:101D300060DE48EF33F05DDE75EF33F0070EE66EE0
:101D4000280EE66E0301355104EF0DF02F5E000EF4
:101D5000305A315A325A2E5032181200D80E40DE04
:101D6000320EE66E080EE66E12006BDE7F0E2B5E04
:101D7000000E2C5A1200E66EE66A98EC35F0E55239
:101D8000E5521200F2DE020EE12612007E0E28DE7F
:0C1D9000ABEF0DF08D0E24DEB0EF0DF077
:041D9C000AEC14F049
:101DA000FB0EDBCFF3FFDB06F35000090AE058EC33
:101DB00014F0FA0EC3EC14F0F3E12C1CF1E1010E67
:101DC00001D0000E39EF14F00AEC14F03B0EE124C0
:101DD00002E3E168E652E16E010EDB6A020EDB6AA5
:101DE000F90EDBCFF6FFFA0EDBCFF7FFFB0EDBCFF2
:101DF000F8FF0800F550DF6EDF5002E15FEF13F0EF
:101E0000250EDF5C02E052EF13F0030EDB6A040ED6
:101E1000DB6A050EDB6A060EDB6A070EDB6A72EC14
:101E200013F02D0EDF5C0CE02B0EDF5C09E0200EC2
:101E3000DF5C06E0230EDF5C03E0300EDF5C1AE1BE
:101E4000DF50300A14E0130A0FE0030A0AE00B0A1D
:101E500005E0060AE4E1030EDB80E1D7030EDB8236
:101E6000DED7030EDB84DBD7030EDB86D8D7030E69
:101E7000DB88D5D72A0EDF5C1BE16EEC13F0BCECDF
:101E800013F010E0030EDB801D681E68130EDBCF1D
:101E900022F0140EDBCF23F098EC36F0040E1BC0BA
:101EA000DBFF03D0130EA5EC13F072EC13F00BD094
:101EB000090EDB6A13EC14F003E087EC14F0FAD798
:101EC000090EA5EC13F0030EDBB0DB982E0EDF5CE1
:101ED0001BE172EC13F02A0EDF5C0BE16EEC13F0E9
:101EE000BCEC13F003E1130EF7EC13F072EC13F0FB
:101EF0000BD0090EDB6A13EC14F003E087EC14F04E
:101F0000FAD7090EF7EC13F0680EDF5C07E172EC0C
:101F100013F0680EDF5C1DE1030E18D0740EDF5C59
:101F200017E07A0EDF5C14E0480EDF5C06E0540E2A
:101F3000DF5C03E05A0EDF5C02E1020E07D06C0E9C
:101F4000DF5C03E06A0EDF5C04E1010E4AEC14F092
:101F5000C9DBDF506E0A01E181D31E0A01E192D193
:101F6000200A01E18FD13F0A01E149D11A0A01E1BA
:101F700046D10D0A01E143D1200A01E140D13A0ADC
:101F800001E13DD1200A01E13AD1260A01E135D132
:101F90000D0A01E132D11A0A01E1D9D0200A4AE042
:101FA000300A1FE0460A0EE0250A01E085D3D95029
:101FB000F90FE96EFF0EDA20EA6E010EEE5E000EFA
:101FC000EE5AEE5A58EC14F0250EE66E95DB03E15E
:101FD0002C1C01E16BD354EC14F001E26DD3DB2A2D
:101FE0006BD3080EDB6A040EDB50010806E2040E18
:101FF000DB041CEC14F0DB508BDB080EDB5009E03B
:10200000030EDB50010B05E172DB01E04FD3080E3C
:10201000DB6A64DBEFCFDFFFCCEC14F003E12C1CB8
:1020200001E144D354EC14F001E3DB2A60DB01E16D
:1020300043D33CD3070EDB5002080FE198EC14F0B9
:10204000030E5FEC14F00E0EEECFDBFF0F0EEECFA3
:10205000DBFF100EEECFDBFF20D0F70EDBCF2EF034
:10206000F80EDBCF2FF0020E2E5E000E2F5AF70E69
:102070002EC0DBFFF80E2FC0DBFF2EC0E9FF2FC004
:10208000EAFF4FEC14F02D6A0E0E2BC0DBFF0F0E93
:102090002CC0DBFF100E2DC0DBFF0E0EDBCFE6FFEA
:1020A0000F0EDBCFE6FF100EDBCFE6FF1AEC38F0A9
:1020B000E552E552E552130E1CC0DBFF140E1DC0A5
:1020C000DBFF060EDB5005E0130E93EC14F001E28B
:1020D0006ADBB7EC14F002E2130E37DB7AEC14F093
:1020E00006E0040E93EC14F002E2050E2EDB030E64
:1020F000DBB005D0FCDA01E0D9D2080EDB6A090EAC
:10210000DB6A0E0EDBCFF6FF0F0EDBCFF7FF100EF4
:10211000DBCFF8FF0800F550DF6EDF5014E0BDECB8
:1021200014F011E2CCEC14F003E12C1C01E1BED25E
:10213000BBDB01E3DB2A090EDB2AD9500E0FE96E67
:10214000000ECBDBE7D7D3DA01E1B6D2AFD2C6DAE5
:10215000110EEECFDBFF120EEDCFDBFF110EDBCF4A
:10216000E6FF120EDBCFE6FF0CEC38F0E552E5524D
:10217000130EF3CFDBFF140EF4CFDBFF060EDB50A4
:1021800004E0130ED0DB01E20EDBB7EC14F002E248
:10219000130EDBDAAFDB05E0040EC5DB02E2050E51
:1021A000D4DA030EDBB005D0A2DA01E07FD2080E4C
:1021B000DB6A090EDB6A110EDBCFE9FF120EDBCF03
:1021C000EAFFEFCFDFFFDF5014E0D7DB12E2E4DB02
:1021D00003E12C1C01E16AD267DB01E3DB2A090E73
:1021E000DB2A110EDB2ADBCFE9FF120EE8E3DB2A44
:1021F000E6D77DDA01E160D259D2030EDB8E070EFD
:10220000DB0410E195DB040E5ADB0A0EEECFDBFF98
:102210000B0EEECFDBFF0C0EEECFDBFF0D0EEECF85
:10222000DBFF6CD0070EDB5003082CE1030EDBAEA6
:102230000DD0B2DA020E76DAEFCF2BF02C6A2D6ACF
:102240002E6A2BAE39D02C682D6835D0F70EDBCF37
:102250002CF0F80EDBCF2DF0020E2C5E000E2D5A66
:10226000F70E2CC0DBFFF80E2DC0DBFF2CC0E9FF02
:102270002DC0EAFFEFCF2BF00A0E2BC0DBFF0B0EB9
:10228000DB6A38D0070EDB50020809E1030EDBAE33
:1022900004D059DB2DAE10D00ED055DB0DD0030E7F
:1022A000DBAE12D079DA020E3DDAF9DA2D6A2E6A47
:1022B0002CAE02D02D682E68E2DA0C0E2DC0DBFFAA
:1022C0000D0E2EC0DBFF1AD0F70EDBCF2DF0F80E6F
:1022D000DBCF2EF0020E2D5E000E2E5AF70E2DC013
:1022E000DBFFF80E2EC0DBFF2DC0E9FF2EC0EAFF9A
:1022F000D6DAC5DA0C0EDB6A0D0EDB6A060EDB5091
:1023000005E1010EF36E050EF3CFDBFF150EDB6A60
:10231000160EDB6AD950370F2B6E000EDA202C6EAA
:10232000390E2BC0DBFF3A0E2CC0DBFF380EDB6A08
:10233000080EDB6A0A0EAEDADF50780A12E0200AD5
:1023400010E0280A0CE0200A0AE03F0A06E00D0A25
:1023500002E0200A08E1020E05D0080E03D0080EA4
:10236000DF26100E97DA030EDBBE02D0DB92DB9481
:10237000DB50800B26E08ADA030EEB50000AE8AE51
:1023800002D0D89008D0000EEE5C000EEE58000E81
:10239000EE58000EEE5815E211DA20682168226826
:1023A0002368A0EC37F00A0E17C0DBFF0B0E18C035
:1023B000DBFF0C0E19C0DBFF0D0E1AC0DBFF2D0E6C
:1023C00008D0030EDBA202D02B0E03D0DBA408D072
:1023D000200EF36E170EF3CFDBFF150EDB2A02D0B3
:1023E000170EDB6A050EDB5003E1B5D901E189D098
:1023F000FE0E2B6E720E2C6E000E2D6E070EDBCFB6
:102400002EF02F6A306A316A2EC020F02FC021F0E2
:1024100030C022F031C023F0D1D9C8EC38F02B50B5
:102420001724F36E2C501820F46E2D501920F86EDE
:10243000F4CFF7FFF3CFF6FF0800090EF5CFDBFF6F
:10244000580EDF5C0FE1610EF36E090E79D90AE3D5
:10245000200E2B6E090EDBCFE7FF2B50E75E090E37
:10246000E7CFDBFF070EDBCF2BF02C6A2D6A2E6A3D
:102470000DDA2BC020F02CC021F02DC022F02EC090
:1024800023F0EECF1BF0EECF1CF0EECF1DF0EFCF20
:102490001EF0C8EC38F01EC0EDFF1DC0EDFF1CC0E3
:1024A000EDFF1BC0EFFF390EDBCFE9FFDB063A0E75
:1024B000DBCFEAFF01E2DB06090EDBCFEFFF150EF3
:1024C000DB2A49D995E1030EDBA61DD06F0EDF5C38
:1024D00006E1BFD918E3150EDB2859DA14D0780EBF
:1024E000DF5C09E0580EDF5C06E0620EDF5C03E0B3
:1024F000420EDF5C08E1020EF36E160EF3CFDBFF37
:1025000002D0150EDB6A030EDB50100B0EE0040E3A
:10251000DBCF2BF0050EDB50D8802B5406E2060EE5
:10252000DB5003E1040EDB5032DA93D90AE2050EE8
:10253000DBCFE7FF150EDB50E75E050EE7CFDBFFD5
:1025400002D0050EDB6A040EDBCF2BF0160E43D94A
:10255000D8802B5414E2160EDBCFE6FF150EDBCF2E
:10256000E6FF040EDBCFE6FF050EDB50E552E75C2D
:10257000E552D880E754E552D880E7545DD9030E80
:10258000DB50010B0BE1080EDB5008E0B0D801E096
:102590008DD0080EDB50BCD8080EDB6A170EDB505E
:1025A00007E086D9170EEFD903E12C1C01E17ED09C
:1025B000160EDB5016E07CD9300EE66E9DD802E197
:1025C0002C1C74E075D9DFCFE6FF5EEC37F0E552E6
:1025D000E552E552F4CF2CF00001F31C02E12C1C73
:1025E00065E0050EDBCF2BF0160EDB50D8802B54A8
:1025F00009E2050EDBCFE7FF160EDB50E75E050EA6
:10260000E7CFDBFF300EE66E050EC9D94FE1390E7C
:10261000DB2ADBCFE9FF3A0E01E3DB2ADBCFEAFF5F
:10262000090EEFCFDBFFDB500EE042D9090EABD92C
:1026300002E12C1C3BE0390EDB2ADBCFE9FF3A0E2E
:10264000EDE3DB2AEBD753D831E1160EDBCFE6FF03
:10265000080EC1D8E552E7245BD82ED0070EDB5018
:10266000030A1CE0010A14E0030A07E079D9DBCF72
:10267000EEFF020EDBCFEDFF1FD0F3D8306A2EAE97
:1026800002D02F6830682AD8BAD830C0EEFF14D0F4
:10269000E8D82EBE2F6822D8B2D80ED061D9DBCFB1
:1026A000EFFF0AD079D905E12C1C03E1F368F46847
:1026B00010D0FAD801E3DB2A77D9F9EF0EF0010E3A
:1026C000DBCF2BF0020EDBCF2CF02BC0F3FF2CC0A6
:1026D000F4FFD9CFE1FFDACFE2FFCBD029D9020E48
:1026E0005FEF14F061D90800F550DF6E1200200E84
:1026F000E66E080ECFEF14F05EEC37F0E552E552CF
:10270000E552F3CF2BF0F4CF2CF00001F31C1200B4
:102710002B6E2C6AD950010F4DD92B50EE262C5020
:10272000ED2212002F5E000E305AF70E2FC0DBFF95
:10273000F80E30C0DBFF2FC0E9FF30C0EAFF120007
:10274000DBCFF4FFF350F45C1200DB50E76E040EB5
:10275000E7CFDBFF12000A0EDBCF2BF00B0EDBCF37
:102760002CF00C0EDBCF2DF00D0EDBCF2EF02B500E
:102770002C102D102E101200130EEECFDBFF140EB6
:10278000EDCFDBFF130EDBCF2BF0140EDBCF2CF0E5
:102790000001800E2C141200F70EDBCF2FF0F80E84
:1027A000DBCF30F01200050EDB50E66ED950130F70
:1027B00001D9E552E750EE6EED6A12000A0EDBCF4A
:1027C0001BF00B0EDBCF1CF00C0EDBCF1DF00D0E43
:1027D000DBCF1EF01200DBCFE6FF150EDBCFE6FFEE
:1027E000050EDB50E552E724E552E7241200DB50EA
:1027F000CED8010EF36E060EF3CFDBFF1200EE50C3
:10280000EFCFEAFFE96E2DC0EEFF2EC0EEFF2FC026
:10281000EEFF1200D9CFE6FFDACFE6FFE1CFD9FF16
:10282000E2CFDAFF1200DFCFE6FFE66A34EC39F0E0
:10283000E552E552F3501200E76E080EE7CFDBFFDA
:102840001200EECF2BF0EECF2CF0EFCF2DF02E6A52
:102850001200050EDBCF2BF0150EDB50D8802B5469
:102860001200010EDBCF2DF0020EDBCF2EF02F6A0F
:102870001200E552E5CFDAFFE7CFD9FF12000A0ECA
:102880002BC0DBFF0B0E2CC0DBFF1200D9500A0F50
:10289000DAEF14F0F36E070EF3CFDBFF1200EECF8A
:1028A0002BF0EFCF2CF01200010EDB2A020E1200EB
:1028B000FC0EDBCFE6FFFD0EDBCFE6FF12002B5E4A
:1028C000000E2C5AF70E2BC0DBFFF80E2CC0DBFFDE
:1028D0002BC0E9FF2CC0EAFF1200DA20EA6EEF2AD3
:1028E000EECFF6FF000EEF22EECFF7FFEF22EECF96
:1028F000F8FF1200040EDBCFE6FF130EDB50E552AB
:10290000E75C9ADFDB5004DF060EDB501200090E95
:10291000DB500A0DF350DF24D00FE76E090EE7CF2E
:10292000DBFF72EF13F0DB50F36E050EA0EF13F038
:10293000F70EDBCF2BF0F80EDBCF2CF01200DFCF41
:10294000E6FF7CEF13F028DF030EECDE21EF14F03E
:10295000CEEC0EF0E552E552E552E55200091200C8
:10296000BDDEEE50EFCFEAFFE96E010E1200130E4E
:10297000DB50F36E040EA0EF13F0040EDB50F36E89
:10298000090EA0EF13F0DBCFE6FF7CEF13F0E76E4C
:10299000050EE7CFDBFF12008BDF9FEF14F0DBCFDC
:1029A000E6FF86DFA8EF14F0D950F90FE96EFF0EAD
:0E29B0006DEF14F0E96E000EDA20EA6E1200F0
:0229BE00D9CF6F
:1029C000E6FFE1CFD9FFE150FB0FE96EFF0EDA2001
:1029D000EA6E030EEB50000AE8AE02D0D89008D0A1
:1029E000000EEE5C000EEE58000EEE58000EEE5893
:1029F0000BE206EC19F0000E2B6C2C1E2C222D1E67
:102A00002D222E1E2E2202D006EC19F02BC01BF018
:102A10002CC01CF02DC01DF02EC01EF0E552E7CFDB
:102A2000D9FF1200D9CFE6FFE1CFD9FF240EE1266E
:102A3000DF6A010EDB6A020EDB6A030EDB6A040E3C
:102A4000DB6A050EDB6A060EDB6A070EDB6A080E20
:102A5000DB6A090EDB6A0A0EDB6A0B0EDB6A0C0E00
:102A6000DB6A0D0EDB6A0E0EDB6A0F0EDB6A100EE0
:102A7000DB6A110EDB6A120EDB6A130EDB6A140EC0
:102A8000DB6A150EDB6A160EDB6A170EDB6A180EA0
:102A9000DB6A190EDB6A1A0EDB6A1B0EDB6A1C0E80
:102AA000DB6A1D0EDB6A1E0EDB6A1F0EDB6A03018A
:102AB000D92B000EDA23D72BD823D0C3BDF20201C5
:102AC000DF51010B0BE00301D25108E1D02BD051B3
:102AD000020801E2D06B010ED26F08D00201DF5173
:102AE000010B04E10301D25101E0D26B0301D55186
:102AF00009E10201DF51020B05E00301010ED56F70
:102B0000D76BD86B0301D5510AE102017F0EC46F68
:102B1000C36FC26FC16F0301D46FD36F50D2D05156
:102B200001E0D0D0D151080A01E1C0D0080A12E07A
:102B3000010A10E0030A0EE0010A0CE0070A0AE0AD
:102B4000010A08E0030A06E0010A04E0F80A01E0CD
:102B5000B4D0D12BD15113E1D3517F0806E3B4ECAB
:102B600019F02DBE2E6823DBD36FD4517F0830E3DC
:102B7000D950080F94DB2DBE2E6819DB9DD0D9CF1C
:102B80002CF0F1DA2EBE2F68D7DB0DE3D9CF31F070
:102B90004ADB33BE34680FDBD9CF2CF0E4DA2EBE2B
:102BA0002F6871DBD36FD950080FC3DB2EBE2F689F
:102BB0001DDB0EE3D950080F316E35DB33BE3468B0
:102BC000FADAD950080FB5DB2EBE2F685CDB74D063
:102BD000200ED75D000ED85970E31BEC33F0B6DA47
:102BE000E9BEEA6838DBAEDBE9BEEA6839DBB1DAB8
:102BF00046DBE9BEEA6834DB9EDAE9BEEA682BDB35
:102C0000FEDAE8AE02D0F33401D0DEDA1BE237DBC5
:102C1000E9BEEA6820DB5CDAE9BEEA6821DB1DDA9E
:102C20007ADAA2DB2DBE2E68A3DBE9BEEA6813DBED
:102C30004FDAE9BEEA6814DB6BDB080F30DB2DBE30
:102C40002E6851DA1CDBE9BEEA680ADB74DAE9BEF9
:102C5000EA6801DBD4DAE8AE02D0F33401D0B4DAAA
:102C60001CE20DDBE9BEEA68FBDA32DAE9BEEA68AB
:102C7000F2DAF3D91750E66E77DB2DBE2E6878DBDB
:102C8000E9BEEA68EDDA24DAE9BEEA68E4DA45DBAF
:102C9000080F05DB2DBE2E6826DA2AEC33F057EC40
:102CA00033F00301D76BD86BD12B07D0CFA1CF2B3B
:102CB000D56BD1697F0ED36FD46FD3C3C1F2D4C3A8
:102CC000C2F27DD1D00501E0D5D0D151080A01E191
:102CD000C2D0080A12E0010A10E0030A0EE0010A5D
:102CE0000CE0070A0AE0010A08E0030A06E0010A0C
:102CF00004E0F80A01E0B9D0D12BD15114E1D3514D
:102D00007F0807E3D950100FCADA2DBE2E684FDABC
:102D1000D36FD4517F0832E3D950180FC0DA2DBEDB
:102D20002E6845DA29D0D950100F03DB2EBE2F684C
:102D300003DB0EE3D950100F316E75DA33BE346801
:102D40003ADAD950100FF5DA2EBE2F689CDAD36F1D
:102D5000D950180FEEDA2EBE2F6848DA0FE3D9509B
:102D6000180F316E60DA33BE346825DAD950180F87
:102D7000E0DA2EBE2F6887DAD46F77D0200ED75DC9
:102D8000000ED85972E31BEC33F0E0D9E9BEEA68D3
:102D90006CDAD8DAE9BEEA686DDADBD970DAE9BE56
:102DA000EA6868DAC8D9E9BEEA685FDA28DAE8AE24
:102DB00002D0F33401D008DA1BE261DAE9BEEA6836
:102DC00054DA86D9E9BEEA6855DAA7DA100F67DA6D
:102DD0002DBE2E68CDDAE9BEEA6847DA79D9E9BEB8
:102DE000EA6848DA95DA180F5ADA2DBE2E687BD9D0
:102DF00046DAE9BEEA683EDA9ED9E9BEEA6835DA23
:102E0000FED9E8AE02D0F33401D0DED91BE237DAC6
:102E1000E9BEEA682FDA5CD9E9BEEA6826DA78DA30
:102E2000100F3DDA2DBE2E68A3DAE9BEEA6822DA79
:102E30004FD9E9BEEA6819DA70DA180F30DA2DBE18
:102E40002E6851D984EC33F0B1EC33F00301D76B29
:102E5000D86BD12B0AD0CFB302D0020ECF27D56BBF
:102E6000D16984EC33F0B1EC33F0D3C3C3F2D4C3F3
:102E7000C4F2A5D0020ED05D01E0A1D0030ECF15A3
:102E8000030801E09CD09CC1E6FF9DC1E6FF9EC106
:102E9000E6FF9FC1E6FF2CD9200EDBCF1CF0210EF0
:102EA000DBCF1DF0220EDBCF1EF0230EDBCF1FF099
:102EB0000101BF511F18E8AE02D01F3408D01C50CA
:102EC000BC5D1D50BD591E50BE591F50BF5902E375
:102ED000000E01D0010E2B6E2C6A2D6A2E6A2BAECD
:102EE00003D02C682D682E68DDD9D2D91B501C1058
:102EF0001D101E1009E0BCC1E6FFBDC1E6FFBEC14A
:102F0000E6FFBFC1E6FFF4D834D9D5D940D9E8AE41
:102F100002D02E3401D08DD902E2CDD9E9D829D9F9
:102F2000D3D935D9E8AE02D02E3401D082D902E20D
:102F3000CBD9DED8DFCFE6FF000EF3D9080EBDD81F
:102F4000100EBBD8180EB9D8010EB7D8090EB5D8D7
:102F5000110EB3D8190EB1D8020EAFD80A0EADD8E3
:102F6000120EABD81A0EA9D8030EA7D80B0EA5D8EF
:102F7000130EA3D81B0EA1D8040E9FD80C0E9DD8FB
:102F8000140E9BD81C0E99D8050E97D80D0E95D807
:102F9000150E93D81D0E91D8060E8FD80E0E8DD813
:102FA000160E8BD81E0E89D8070E87D80F0E85D81F
:102FB000170E83D81F0E81D80301D56B48D042D994
:102FC00013E10301D451E66EE66AD351E66EE66A78
:102FD000120EE66E430EE66E000EE66E14EC37F04F
:102FE000F56E070EE15EF5502DD931E1A2EC33F01C
:102FF00074D9F3D875EC33F01BC02FF01CC030F03F
:103000001DC031F01EC032F0E8D848EC33F01BC0D0
:1030100033F01CC034F01DC035F01EC036F0DDD8D2
:103020001BEC33F01BC037F01CC038F01DC039F06A
:103030001EC03AF0D2D8D10EE66E420EE66E000EF9
:10304000E66E14EC37F0F56E130EE15EF550D9CF55
:10305000E1FFE552E7CFD9FF1200EA22EECF2FF0D1
:10306000EECF30F0EECF31F0EFCF32F0640E206EC5
:10307000216A226A236A2FC01BF030C01CF031C0C5
:103080001DF032C01EF0A0EC37F017C02FF018C0B2
:1030900030F019C031F01AC032F028D933C020F016
:1030A00034C021F035C022F036C023F064EC36F095
:1030B000020E4DD9640EA7EF19F0DBCFE6FF91EFBA
:1030C00019F0D890E936EA36D890E936EA36120097
:1030D000EA22EECF33F0EECF34F0EECF35F0EFCF83
:1030E00036F03FEF19F039D9E552E750EF6E120094
:1030F000CFD8200E1BC0DBFF210E1CC0DBFF220E31
:103100001DC0DBFF230E1EC0DBFF1200F8D8D12943
:10311000100DF3501200EAD8206821682268236855
:10312000A0EC37F01750E66E1200DACF2CF0D1C3C6
:103130002DF02E6A1200EA22EECF2BF0EECF2CF00B
:10314000EECF2DF0EFCF2EF03FEF19F0C6D83FEFC6
:1031500019F0EA222BC0EEFF2CC0EEFF2DC0EEFFCF
:103160002EC0EEFF1200DACF2DF0D1052E6E2F6AA1
:103170001200200EDBCF2BF0210EDBCF2CF0220E25
:10318000DBCF2DF0230EDBCF2EF052EF19F080D8DD
:10319000E552E7CF2EF0E552E7CF2DF0E552E7CF2D
:1031A0002CF0E552E7CF2BF01E502E181200D5D888
:1031B000EF508F0F120031503324E96E325034201B
:1031C000EA6EEFCF30F01200EE502B5CEE502C5830
:1031D000EE502D58EE502E5812001BC0E6FF1CC0BA
:1031E000E6FF1DC0E6FF1EC0E6FF120088D8100EE5
:1031F000D103F3502B247F0FD880D4551200EA223C
:10320000030EEBCFF3FF2E50F3181200FB0EDBCFB3
:103210002BF0FC0EDBCF2CF0FD0EDBCF2DF0FE0EE5
:10322000DBCF2EF01200DACF32F0D1C333F0346AA4
:1032300012002B501B5C2C501C582D501D582E502A
:103240001E581200D9C32BF000012C6A1F0E2B163A
:103250002B502C10120035DF800EE926010E1200D3
:1032600030DFA00EE926010E12002BDFC00EE9268A
:10327000010E120026DFE00EE926010E1200D1C376
:10328000E9FFEA6A120042DF7F0F2B24302412008C
:10329000DFEC14F0E552E552E552E55212002B6ED8
:1032A00095EF18F02BC0E6FF2CC0E6FF2DC0E6FF1F
:1032B0002EC0E6FF1200DCC1E6FFDDC1E6FFDEC185
:1032C000E6FFDFC1E6FF1200FCC1E6FFFDC1E6FF3D
:1032D000FEC1E6FFFFC1E6FF12001BC02BF01CC0C1
:1032E0002CF01DC02DF01EC02EF0120017C01BF0D8
:1032F00018C01CF019C01DF01AC01EF012002C508E
:103300002E24E96E2D502F20EA6EEFCF2BF0120005
:10331000A4DE1750E66ED95012009FDEFCDED950B5
:103320001200E66EE66AA7EC35F0E552E552E5528A
:1033300012002C6EB3EF18F0E9DE2B247F0FD8803B
:10334000D355120006DF48EC33F0A6EF18F0206EDC
:10335000216A226A236A64EF36F02B502D24E96E2D
:103360002C502E20EA6E1200D9CF2BF095EF18F0DA
:06337000BADE3FEF19F088
:0A3376000301730508E17B0EE66E0B
:10338000460EE66E000E64DB0301736B4DEC24F019
:1033900006D8020E03015C5D01E1F8D812000301BA
:1033A000742B7F0E6A6F6B6F6C6F632B63512B6E88
:1033B0002C6AD8902C5004E6900E2B5C010E2C58F1
:1033C0000AE3636B5C51E66EE66A630EE66E460ED8
:1033D000E66E000E58DB03015C51060A01E1C1D024
:1033E000020A01E1B6D0010A01E18FD0070A6DE0BF
:1033F000030A5CE0060A34E00F0A22E0080A01E052
:10340000BBD025EC25F0F50EE66EE66AE668C80E40
:10341000E66EF50EE66EE66A1BEC26F0F56E060E1D
:10342000E15EF550F5C35DF303EC33F03D0EE66E5F
:10343000460EE66E000E0CDB21DB0301080E0ED0FB
:10344000752B140EE66E460EE66E000E01DB16DBE3
:10345000280E0301755D01E298D0070E5C6F120023
:10346000F00EE66E450EE66E000EF2DA0301672BF3
:10347000000E6823260E675D000E685907E27F0E76
:10348000E66EC00EE66E7F0EEADA02D0040E5C6FC6
:1034900003010651020801E378D00301010E5C6FBD
:1034A000CE0EE66E450EE66E000E29D0645132084F
:1034B00002E3642B1200EAD90301020E5C6FA80E2E
:1034C000E66E450EE66E000E1AD0600508E1050EA8
:1034D0005C6F7E0EE66E450EE66E000E10D06651F5
:1034E0002B6E2C6AF40E2B180CE1010E2C1809E13E
:1034F000040E5C6F4F0EE66E450EE66E000E28EF72
:103500001DF0642BC3D9C6EF1AF065510CE1300EE3
:10351000E66E450EE66E000E9BDA7F0EE66E3C0E02
:10352000E66E7F0E9CDA030165512B6E2C6A2C34FB
:103530000DE22B50F408010E2C5408E2060E5C6FCD
:10354000090EE66E450EE66E000E82DA0301652B6B
:103550001200B1DA1AE3F10EE66E440EE66E000ECA
:1035600007D0A9DA12E3D80EE66E440EE66E000E1E
:103570006FDA0301696B12005C51E66EE66AAB0E0E
:10358000E66E440EE66E000E7EDA120003017F0E38
:103590006A6F6B6F6C6F01C3E6FF9FEC30F0E55212
:1035A0000301EF6F00C3E6FF45EC30F0E552030185
:1035B0005E6F762B320E765D01E3766B0301EF5181
:1035C000090A01E11BD1010A01E1FAD00F0A01E168
:1035D000E0D0010A01E1C2D0030A01E1A4D0010A4E
:1035E00001E186D0070A5DE0010A3DE0030A1FE021
:1035F000010A01E021D10301635106E1980EE66E54
:10360000440EE66E000E24DA03015D0504E17F0E30
:103610006A6FA00E6B6F5D5104E1570E6A6FAA0EC0
:103620006B6F020E5D5D01E007D1A70E37D003017D
:10363000635106E1850EE66E440EE66E000E08DA72
:1036400003015D0504E17F0E6A6F9E0E6B6F5D5195
:1036500004E17F0E6A6FAA0E6B6F020E5D5D01E0E2
:10366000EBD07F0E1BD00301635106E1720EE66EB4
:10367000440EE66E000EECD903015D0504E17F0EF9
:103680006A6F9C0E6B6F5D5104E17F0E6A6FAA0E2C
:103690006B6F020E5D5D01E0CFD07F0E6A6FAA0EE8
:1036A000ABD00301635106E15A0EE66E440EE66E9E
:1036B000000ECED903015D0504E17F0E6A6F9A0EFC
:1036C0006B6F5D5104E1610E6A6FAA0E6B6F020EA3
:1036D0005D5D04E19D0E6A6FAA0E6B6F630506E1E6
:1036E000360EE66E440EE66E000EB2D9C7D9A4D0EF
:1036F0000301635106E11E0EE66E440EE66E000EF7
:10370000A7D903015D0504E17F0E6A6F980E6B6F08
:103710005D5104E16E0E6A6FA00E6B6F020E5D5D6F
:1037200001E08AD019D00301635106E1060EE66E6E
:10373000440EE66E000E8CD903015D0504E17F0E98
:103740006A6F960E6B6F5D5104E16E0E6A6FA00E8C
:103750006B6F020E5D5D70E1900E4CD00301635102
:1037600006E1F10EE66E430EE66E000E71D9740EA0
:1037700003015E5D04E17F0E6A6F960E3DD06C0E14
:103780005E5D02E1720E36D0720E5E5D55E18C0E0A
:1037900031D00301635106E1DC0EE66E430EE66EA6
:1037A000000E56D9740E03015E5D17E06C0E5E5D6F
:1037B00002E1750E1FD0720E5E5D3EE1860E1AD0DC
:1037C0000301635106E1C70EE66E430EE66E000E7E
:1037D0003FD9740E03015E5D04E17F0E6A6F8C0EAB
:1037E0000BD06C0E5E5D02E17F0E04D0720E5E5D4A
:1037F00023E17F0E6A6FA00E6B6F1ED00301652B55
:10380000635109E16551E66EE66AB10EE66E430E5C
:10381000E66E000E38D90301655114080DE2940ECE
:10382000E66E430EE66E000E13D9E66A040E4CD91E
:103830000301010E606F656B6C0E03015E5D03E0BA
:10384000720E5E5D02E17F0E6C6F630518E15E51E2
:10385000E66EE66A6C51E66EE66A6B51E66EE66A03
:103860006A51E66EE66A530EE66E430EE66E000E91
:10387000E66E14EC37F0F56E0B0EE15EF5506CC39E
:10388000E6FF6BC3E6FF6AC3E6FF24D10301782B92
:10389000050E785D03E1772B09EC30F00301772BFF
:1038A000140E775D26E1020E0301F05D02E1E66A87
:1038B0001BD007C3E6FF01C3E6FF9FEC30F0E552E3
:1038C000E66E6FEC30F0E552E5520301F06FE85020
:1038D00003E10301662B0BD00301666B020E0301AB
:1038E000F05D05E1010EE66E16EC31F0E5520301E4
:1038F000776B1200D7D8040EE126010ECCD8870EC4
:10390000E66E4CEC35F0E552F3CFDEFFF4CFDDFF91
:10391000DECF2BF0DDCF2CF00001800E2C1409E15E
:10392000A7D804E22D500A08000E2E5402E3010E1F
:103930004FD097D804E6550E2B5C000E2C5809E3A7
:1039400097D804E22D505F08000E2E5402E3060EB5
:103950003FD087D804E6AF0E2B5C000E2C5809E34D
:1039600087D804E22D50C308000E2E5402E3030E44
:103970002FD077D804E67C0E2B5C010E2C5809E37F
:1039800077D804E22D509508010E2E5402E3040E60
:103990001FD067D804E64E0E2B5C020E2C5809E3AC
:1039A00067D804E22D506208020E2E5402E3050E81
:1039B0000FD057D804E6160E2B5C030E2C580AE3E2
:1039C00057D804E22D503408030E2E5403E3010EA1
:1039D00062D806D0340EE66E430EE66E000E38D87E
:1039E000020EDBCF2BF0030EDBCF2CF02BC0F3FF4E
:1039F0002CC0F4FFD9CFE1FF5AD054D8E652400E84
:103A0000DF6E0301792BFE0EDB5002E1C00EDF6E8C
:103A10007A510BE07F0EE66EDFCFE6FF20D8030180
:103A20007951260809E27A6B07D07F0EE66EE66EC2
:103A300016D8E66A030E48D8E55239D033D8E66A7C
:103A4000FE0EDBCFE6FF05EC0AF0E552E5522FD083
:103A5000E66E14EC37F0E552E552E5521200E66EE0
:103A600039D0DECF2BF0DDCF2CF0D8902C501200C7
:103A7000DECF2DF0DDCF2EF02E341200010EE66EDB
:103A8000040E64EF1DF0E66E14EC37F0F56E050ED3
:103A9000E15EF5501200F36E020EF3CFDBFF030E72
:103AA000DB6A1200D9CFE6FFE1CFD9FF1200E55261
:103AB000E7CFD9FF12007F0EE66EE66ED0DF03017E
:103AC000692B320E695D1200E66E05EC0AF0E552D4
:103AD000E552120094EC26F0E552E552E552120050
:103AE000D8CFE4FFE0CFE4FFE46EDACFE4FFE2CF2B
:103AF000DAFFE9CFE4FFEACFE4FFE652F2A202D018
:103B0000A5D802D09EB6D1D8E552E5CFEAFFE5CFE1
:103B1000E9FFE5CFDAFFE550E5CFE0FFE5CFD8FFDD
:103B20001000E66A010EE66E050EE66E3FEC38F018
:103B3000E552E552E5521200070EB46E000E886E93
:103B4000876E866E856E846E836E826E816E806EE9
:103B5000916E906E8F6E8E6E8D6E8C6E8B6E8A6E89
:103B6000896E2F0E926E93689C0E946E956A966A7B
:103B70009768040E986E0E0E9A6E9968C16AF19E4F
:103B8000B0989C8EA26A9F6AA06A9D6AA36AA56A81
:103B9000C8DF9F86D08E9E969D869382F06AF288BB
:103BA000F09EF098F192F09AF16AF28CF28E120087
:103BB000D9CFE6FFE1CFD9FFE652BEDF0201FD9784
:103BC000FD990301C10ECD6F020ECE6FDF6A100E9C
:103BD000DF5C0AE2DF50EA6ACD25E96ECE51EA22C7
:103BE0007F0EEF6EDF2AF3D70201DA6B010EDB6F77
:103BF000C20EDC6F0201FD850201DF6BE06B02018A
:103C0000BD6BBF6BC06B010ED56E320ED76ECF0E83
:103C1000D66ED59EBD0EE66E020EE66E8BD8E552D0
:103C2000E5520201FD93BD0EE66E020EE66E82D8ED
:103C3000E552E5520201FD93E552E552E7CFD9FF87
:103C4000120082828088949292981200F29203016C
:103C5000200EC96F9F860201FDA906D00301E00E68
:103C6000C66F000EC76F05D00301C00EC66F000EF1
:103C7000C76F0201FDA1FD79FDA706D00301800EEB
:103C8000C46F000EC56F05D00301A00EC46F000EF7
:103C9000C56FC9CFCAF3C4C3E9FFC5C3EAFFC42BCC
:103CA000000EC523EF50C96E12009E96C9CFCAF30D
:103CB0000301C951000823E2C6C3E9FFC7C3EAFFF5
:103CC000C62B000EC723CAC3EFFFC4C3E9FFC5C399
:103CD000EAFFC42BC523EFCFCAF3CAC3C9FFC90784
:103CE000C9510CE10201020EDB6F0201FD93FD815F
:103CF000320ED76ECF0ED66EF294D58E01D0C96A31
:103D00001200D9CFE6FFE1CFD9FF0201FDA10ED00D
:103D1000FD0EDBCFE6FFFE0EDBCFE6FFB7EC2BF0B0
:103D2000E552E5529D960201FD919D86E552E7CF51
:103D3000D9FF1200D9CFE6FFE1CFD9FF0201FDB3D1
:103D400032D0FD0EDBCFE9FFFE0EDBCFEAFF1E0E09
:103D5000E926000EEA22EF50020809E1FD0EDBCF52
:103D6000E6FFFE0EDBCFE6FF69D8E552E552FD0E19
:103D7000DBCFE9FFFE0EDBCFEAFF150EE926000ED2
:103D8000EA22EF9EFD0EDBCFE6FFFE0EDBCFE6FF65
:103D900025EC2BF0E552E5529D960201FD77FD835F
:103DA0009D860201DA2BE552E7CFD9FF12009D96DE
:103DB0000201FD919D861200D9CFE6FFE1CFD9FF28
:103DC0000001166BD950FD0FE96EFF0EDA20EA6E86
:103DD000010EEE1801E1ED5002E1168101D0BA6A40
:103DE000D950FB0FE96EFF0EDA20EA6E010EEE18D5
:103DF00001E1ED5002E1168301D0B76AD950F90F05
:103E0000E96EFF0EDA20EA6E010EEE1801E1ED50C8
:103E100002E1168501D0736AD950F70FE96EFF0EE3
:103E2000DA20EA6E010EEE1801E1ED5002E116878C
:103E300001D0706AE552E7CFD9FF1200D9CFE6FF73
:103E4000E1CFD9FFFD0EDBCFE9FFFE0EDBCFEAFFAE
:103E50001C0EE926000EEA22EF6AFD0EDBCFE9FF19
:103E6000FE0EDBCFEAFF170EE926000EEA22EF6A0C
:103E7000C6AE0ED0C69EFD0EDBCFE9FFFE0EDBCF39
:103E8000EAFF170EE926000EEA22010EEF6E22D09D
:103E9000F150800B10E0F250080B0DE0FD0EDBCF6F
:103EA000E9FFFE0EDBCFEAFF170EE926000EEA223D
:103EB000020EEF6E0FD0F0A60DD0909EFD0EDBCF60
:103EC000E9FFFE0EDBCFEAFF170EE926000EEA221D
:103ED000030EEF6E250EC614250819E0FD0EDBCF8C
:103EE000E9FFFE0EDBCFEAFF1C0EE926000EEA22F8
:103EF000010EEF6EFD0EDBCFE9FFFE0EDBCFEAFF1A
:103F0000170EE926000EEA22C6CFEFFF80D1C5507A
:103F100019E0FD0EDBCFE9FFFE0EDBCFEAFF1C0E42
:103F2000E926000EEA22020EEF6EFD0EDBCFE9FF5E
:103F3000FE0EDBCFEAFF170EE926000EEA22C5CF00
:103F4000EFFF65D1D0BE19D0FD0EDBCFE9FFFE0E2D
:103F5000DBCFEAFF1C0EE926000EEA22030EEF6E0D
:103F6000FD0EDBCFE9FFFE0EDBCFEAFF170EE926E1
:103F7000000EEA22D0CFEFFF4AD19DB619D0FD0E38
:103F8000DBCFE9FFFE0EDBCFEAFF1C0EE926000EB9
:103F9000EA22040EEF6EFD0EDBCFE9FFFE0EDBCF53
:103FA000EAFF170EE926000EEA229DCFEFFF2FD180
:103FB0009C5019E0FD0EDBCFE9FFFE0EDBCFEAFFE0
:103FC0001C0EE926000EEA22050EEF6EFD0EDBCF79
:103FD000E9FFFE0EDBCFEAFF170EE926000EEA220C
:103FE0009CCFEFFF14D1080E9F5C19E0FD0EDBCFD4
:103FF000E9FFFE0EDBCFEAFF1C0EE926000EEA22E7
:10400000060EEF6EFD0EDBCFE9FFFE0EDBCFEAFF03
:10401000170EE926000EEA229FCFEFFFF8D0A2503C
:1040200019E0FD0EDBCFE9FFFE0EDBCFEAFF1C0E31
:10403000E926000EEA22070EEF6EFD0EDBCFE9FF48
:10404000FE0EDBCFEAFF170EE926000EEA22A2CF12
:10405000EFFFDDD0A55019E0FD0EDBCFE9FFFE0E2E
:10406000DBCFEAFF1C0EE926000EEA22080EEF6EF7
:10407000FD0EDBCFE9FFFE0EDBCFEAFF170EE926D0
:10408000000EEA22A5CFEFFFC2D0100EF2141008E6
:1040900019E0FD0EDBCFE9FFFE0EDBCFEAFF1C0EC1
:1040A000E926000EEA22090EEF6EFD0EDBCFE9FFD6
:1040B000FE0EDBCFEAFF170EE926000EEA22F2CF52
:1040C000EFFFA5D0470EF11419E0FD0EDBCFE9FF9D
:1040D000FE0EDBCFEAFF1C0EE926000EEA220A0ED6
:1040E000EF6EFD0EDBCFE9FFFE0EDBCFEAFF170E12
:1040F000E926000EEA22F1CFEFFF89D0C00EF014BE
:1041000019E0FD0EDBCFE9FFFE0EDBCFEAFF1C0E50
:10411000E926000EEA220B0EEF6EFD0EDBCFE9FF63
:10412000FE0EDBCFEAFF170EE926000EEA22F0CFE3
:10413000EFFF6DD092A819D0FD0EDBCFE9FFFE0E88
:10414000DBCFEAFF1C0EE926000EEA220C0EEF6E12
:10415000FD0EDBCFE9FFFE0EDBCFEAFF170EE926EF
:10416000000EEA2292CFEFFF52D093B019D0FD0E8D
:10417000DBCFE9FFFE0EDBCFEAFF1C0EE926000EC7
:10418000EA220D0EEF6EFD0EDBCFE9FFFE0EDBCF58
:10419000EAFF170EE926000EEA2293CFEFFF37D091
:1041A0003E0E94141C0819E0FD0EDBCFE9FFFE0E55
:1041B000DBCFEAFF1C0EE926000EEA220E0EEF6EA0
:1041C000FD0EDBCFE9FFFE0EDBCFEAFF170EE9267F
:1041D000000EEA2294CFEFFF1AD097BE18D0FD0E42
:1041E000DBCFE9FFFE0EDBCFEAFF1C0EE926000E57
:1041F000EA220F0EEF6EFD0EDBCFE9FFFE0EDBCFE6
:10420000EAFF170EE926000EEA2297CFEFFFE552EC
:06421000E7CFD9FF120008
:0A4216006175746F6E6F6D6F757344
:10422000206D6F6465206E6F7420737570706F728F
:104230007465642061742070726573656E742F728A
:1042400000552D522D46206175746F6E6F6D6F7520
:1042500073207377697463683A2025642F72002095
:104260002020737461747573666C61672E4E4557B8
:104270005F5350495F44415441203D2025640D0067
:10428000646F5F63616C206973206E6F7720310DFE
:10429000004175746F6E6F6D6F757320537769741D
:1042A00063683A2025750D00494649203230303682
:1042B00020557365722050726F636573736F72203F
:1042C000496E697469616C697A6564202E2E2E0DC1
:1042D00000636C69636B735F666C203D20256C64C2
:1042E00020636C69636B735F6672203D20256C648C
:1042F00020636C69636B735F626C203D20256C6486
:1043000020636C69636B735F6272203D20256C646F
:104310000D006D6F746F725F6C656674203D2025B3
:1043200064206D6F746F725F7269676874203D20DE
:1043300025640D004552524F523A205377697463F9
:1043400068206973206E6F7420696E2072616E67D9
:10435000650D006175746F5F64726976653A2063FC
:10436000616C6C696E6720637261625F647269760A
:10437000652025642C2025642C2025642C206C6964
:1043800067687420646972656374696F6E203D208C
:1043900025630D006175746F5F64726976653A20FC
:1043A000504C4143494E47204B4545504552200D06
:1043B000006175746F5F64726976653A2054484590
:1043C00052452025640D006175746F5F64726976D3
:1043D000653A20434C4F53455F330D006175746F50
:1043E0005F64726976653A20434C4F53455F320DE6
:1043F000006175746F5F64726976653A20434C4F53
:1044000053455F310D006175746F5F647269766545
:104410003A204D494452414E47455F330D00617586
:10442000746F5F64726976653A204D494452414E1B
:1044300047455F320D006175746F5F647269766520
:104440003A2041444A555354494E47204D414E4924
:1044500050554C41544F52200D006175746F5F648C
:10446000726976653A204D494452414E47455F3165
:104470000D006175746F5F64726976653A2046411C
:10448000525F330D006175746F5F64726976653ACF
:10449000204641525F320D006175746F5F6472692E
:1044A00076653A204641525F310D006572726F7237
:1044B00020696E206175746F5F73746174655F6DE0
:1044C000616368696E652C206175746F5F737461D8
:1044D00074653D2025640D006D697373696F6E20EE
:1044E000636F6D706C6574652073746174652F7291
:1044F000006D697373696F6E2061626F72746564B9
:104500002073746174652F72006175746F5F7374CA
:104510006174655F6D616368696E653A204D4953EA
:1045200053494F4E5F434F4D504C455445440D0049
:104530006175746F5F73746174655F6D61636869E1
:104540006E653A2052455452454154494E470061E8
:1045500075746F5F73746174655F6D616368696EB4
:10456000653A204D495353494F4E5F41424F525493
:10457000212121204E4F204C494748540D006175A0
:10458000746F5F73746174655F6D616368696E6594
:104590003A204D495353494F4E5F4143434F4D508D
:1045A0004C49534845440D006175746F5F737461E5
:1045B00074655F6D616368696E653A204D49535358
:1045C000494F4E5F41435449564154454400676F3B
:1045D000696E6720746F204D495353494F4E2049EF
:1045E0004E495449414C495A494E472E2E2E0D00F2
:1045F0006175746F5F73746174655F6D6163686921
:104600006E653A20444541445F5245434B4F4E4905
:104610004E470D006175746F5F64726976653A206C
:104620004D495353494F4E5F434C4F53494E475F9B
:104630004F4E5F47524950504552200D00617574EE
:104640006F5F64726976653A204D495353494F4E06
:104650005F4E4F545F494E495449414C495A454475
:10466000200D006175746F5F73746174655F6D61B7
:104670006368696E653A2025640D00646F5F61753B
:10468000746F20686173206265656E2063616C6C75
:1046900065642E0D00696E697469616C2076616CC9
:1046A00075652C2077726974652076616C7565205C
:1046B0006C6F7765722C2077726974652076616CF7
:1046C00075652068696768657220200D25640D2571
:1046D000642C25640D00696E206175746F6E6F6DBA
:1046E0006F75735F6D616E6970756C61746F725F09
:1046F0006D61737465725F636F6E74726F6C3A2074
:10470000677269707065725F6F70656E5F6F725F00
:10471000636C6F73652025640D00636F64652065AD
:1047200072726F7220696E206175746F6E6F6D6F3B
:1047300075735F6D616E6970756C61746F725F6DBA
:1047400061737465725F636F6E74726F6C3A20642C
:104750006573697265645F706F736974696F6E3DCC
:1047600020256420200D00636F6465206572726FE0
:104770007220696E2074656C656F70657261746516
:10478000645F6D616E6970756C61746F725F6D618D
:10479000737465725F636F6E74726F6C3A20726FC0
:1047A000746172795F6469616C3D20256420200D1D
:1047B000006772697070657220656E636F64657200
:1047C0002076616C75652025640D00546865206D48
:1047D00069645F782076616C756520696E2074610C
:1047E000726765745F61745F63656E746572203DA6
:1047F00020256400436F6E666964656E6365206999
:10480000732025640D0D004E756D626572206F6614
:1048100020706978656C732069732025640D0054DD
:10482000686520726967687420636F726E657220B4
:104830006F66207468652072656374616E6C67656D
:104840002069732025642C2025640D0054686520A0
:104850006C65667420636F726E6572206F6620747B
:1048600068652072656374616E676C65206973208A
:1048700025642C2025640D00546865204D6964640E
:104880006C65206F662074686520626C6F622069B9
:09489000732025642C25640D0041
:01489900001E
:06489A0031DA040EE126F4
:1048A0000301E5510AE1D1D8DF6EDF0404E1030121
:1048B000010EE56F02D0DF500108FAD9E76E010E54
:1048C000E7CFDBFFDB50000817E2030EDB6A010EC7
:1048D000DB50F36E030EDBCFF4FFF350F45C0CE21D
:1048E000E9D9E76E020EE7CFDBFFDBCFE6FF07D8A3
:1048F000E552030EDB2AEBD7D9CFE1FF05D2FFD972
:104900000301EC51060A01E17FD0030A60E0060AC8
:104910002EE0010A23E0030A01E096D0FE0EDB50F0
:104920002B6E2C6AFF0E2B1804E12C5002E1020EB4
:104930008AD0FE0EDB50410806E10301020E2B6F08
:104940000301050E80D0FE0EDB504E0801E07CD046
:104950000301020E2B6F0301060E75D0FE0EDB5015
:10496000540870E103012A6B0301030E6CD00301AC
:104970002A512B6E2C6A080E2B5C000E2C580AE272
:104980002A51EA6A080FE96E030EEA22FE0EDBCF17
:10499000EFFF2A2B2A512B6E2C6A080E2B1854E19C
:1049A0002C5052E108C300F309C301F30AC302F318
:1049B0000BC303F30CC304F30DC305F30EC306F3DB
:1049C0000FC307F30301E62B000EE7233BD0020ED3
:1049D00003012B5D04E1FE0EDB50430824E0030ECF
:1049E0002B5D04E1FE0EDB504B081DE0040E2B5D39
:1049F00009E1FE0EDB500D0805E10301E82B000E76
:104A0000E92320D003011ED0020E03012B5D04E137
:104A1000FE0EDB50430807E0030E2B5D06E1FE0EA1
:104A2000DB504B0802E12B2B0FD0040E2B5D09E16C
:104A3000FE0EDB500D0805E10301EA2B000EEB230F
:104A400001D00301010EEC6F5FD159D9E652030189
:104A5000ED0507E1FCD8050EE66E02D9E55203012B
:104A6000ED6BEE050DE1EE6B03012D6B010E2C6F6E
:104A70002E6B2F6B306B0301E86BE96BEA6BEB6B12
:104A800003012D0528E10301010EE85D000EE9593F
:104A900005E303012D6B2E6B2F6BC3D0010EEA5D76
:104AA000000EEB5903E303012C05BAD003010A0EF3
:104AB0002E5D000E2F590BE3800E2C252B6E2C6AD9
:104AC000000E2C222B062C5A2BC030F3AAD02E2BF2
:104AD000000E2F23A6D00301E86BE96BEA6BEB6BAA
:104AE00003012C51120A01E19AD0030A01E180D09E
:104AF000010A01E177D01F0A6FE0010A67E0030AAB
:104B00005FE0010A57E0070A4FE0010A45E0030AA7
:104B10003DE0010A35E00F0A2DE0010A25E0030A15
:104B20001DE0010A15E0070A0DE0010A07E0030A8B
:104B300001E077D08CD80301020E01D0030E2C6F58
:104B40002D6B6FD0800EE66E290ECAD8040E63D08E
:104B5000200EE66E130EC4D8050E5DD0840EE66EF0
:104B60002D0EBED8060E57D0800EE66E2A0EB8D88F
:104B7000070E51D0200EE66E2B0EB2D8080E4BD089
:104B8000840EE66E2D0EACD8090E45D0200EE66ED2
:104B9000120EA6D80A0E3FD0E66AE66A81D8E55220
:104BA000E55203010B0E37D0800EE66E010E98D849
:104BB0000C0E31D0800EE66E020E92D80D0E2BD068
:104BC000800EE66E030E8CD80E0E25D0010EE66E1A
:104BD000060E86D80F0E1FD0010EE66E100E80D87E
:104BE000100E19D0E66A4AD8E5520301110E13D00F
:104BF000910EE66E640EE66E110EE66E0F0EE66E18
:104C0000730EE66E550EE66E16D8F56E060EE15E74
:104C1000F5500301120E2C6F010E2D6F02D0010E04
:104C2000306F3051000803E20301010EEE6F030103
:104C30003051E55269D063D8540E5DD8430E5BD82D
:104C4000060E66D8FA0E52D8F90E50D85DD00D0E69
:104C50007BEF26F00301E56B12000301E551120022
:104C60004ED8520E48D84D0E46D8200E44D8FE0ECF
:104C7000DB50300F40D80D0E3ED846D040D84E0EF7
:104C80003AD8460E38D8010E36D8FE0E2FD83CD072
:104C900036D8560E30D8570E2ED8040E39D834D008
:104CA0002ED8430E28D8520E26D8020E37D82CD034
:104CB000B6EF31F0DDEF31F022D8FE0EDBCFE6FFAC
:104CC00015EC32F0E55220D0ADEF31F0BFEF31F00E
:104CD00016D8FE0EDBCFE6FFFBEC31F0E55214D028
:104CE000E66EDEDFE552E55203011200DBCFE6FFA0
:104CF000E3DFE5521200E66EDFDFE5521200D9CFA6
:104D0000E6FFE1CFD9FF1200E552E7CFD9FF12004D
:104D100005D8FC0EEBDFFB0E76EF26F0ECDFFE0E87
:084D2000E5DFFD0E76EF26F041
:084D2800D9CFE6FFE1CFD9FF6E
:104D30000E0EE126FE0EDB50DE6EDD6AFD0EDB5050
:104D4000E66ED950020FF1D9FC0EDB50E66ED95059
:104D5000040FEBD9DECF2BF0DDCF2CF02C3401E2A9
:104D6000C1D906E3D9CFE9FFDACFEAFF7F0E09D038
:104D7000E8D901E6FBD908E3D9CFE9FFDACFEAFFAA
:104D8000800EEE5E000EED5AB8D92C3401E2AAD99D
:104D900004E3D950020FABD909D0AFD9D8902C5029
:104DA00001E6E4D906E3D950020FA4D9EE5E000E65
:104DB000ED5AAAD92C3401E295D904E3D950040F55
:104DC00096D909D0A1D9D8902C5001E6CFD906E3C5
:104DD000D950040F8FD9EE5E000EED5AB2D901E61C
:104DE000CAD90AE2DECF2DF0DDCF2EF02E3401E35A
:104DF000C7D902E2DE6ADD6A80D9D8902C5001E67C
:104E0000BAD90EE2020EDBCF2DF0030EDBCF2EF06F
:104E10002E3401E3B5D904E2020EDB6A030EDB6A2D
:104E200073D9D8902C5001E6A6D90EE2040EDBCF40
:104E30002DF0050EDBCF2EF02E3401E3A1D904E2D4
:104E4000040EDB6A050EDB6A22D982D9060E2BC05E
:104E5000DBFF070E07D983D9080E2BC0DBFF090E35
:104E600001D976D90A0E2BC0DBFF0B0E2CC0DBFF5D
:104E70000ED975D90C0E2BC0DBFF0D0E2CC0DBFF3D
:104E8000D950080F58D9D9500C0F55D90201DF510C
:104E9000010B0FE1DE51400B0CE1D950060FD3D8C6
:104EA000D950080FD0D8D9500A0FCDD8D9500C0FEF
:104EB000CAD8FCD8D8802C5001E72DD908E2810E41
:104EC000F36E060EF3CFDBFF070EDB680CD0EED8D7
:104ED0002C3409E207D907E27F0EF36E060EF3CFFA
:104EE000DBFF070EDB6AE9D8D8802C5001E713D925
:104EF00008E2810EF36E080EF3CFDBFF090EDB68CC
:104F00000CD0DBD82C3409E2EDD807E27F0EF36E2B
:104F1000080EF3CFDBFF090EDB6AD6D8D8802C5001
:104F200001E7F9D808E2810EF36E0A0EF3CFDBFF3A
:104F30000B0EDB680CD0C8D82C3409E2D3D807E2BA
:104F40007F0EF36E0A0EF3CFDBFF0B0EDB6AC3D8C6
:104F5000D8802C5001E7DFD808E2810EF36E0C0EEA
:104F6000F3CFDBFF0D0EDB680CD0B5D82C3409E293
:104F7000B9D807E27F0EF36E0C0EF3CFDBFF0D0EF8
:104F8000DB6A94D82C3401E2CBD804E3D950060F65
:104F9000AED803D0D950060FADD8EE26000EED22C4
:104FA0008CD82C3401E2BCD804E3D950080F9FD828
:104FB00003D0D950080F9ED8EE26000EED2284D8DB
:104FC0002C3401E2ADD804E3D9500A0F90D803D0B5
:104FD000D9500A0F8FD8EE26000EED227CD82C3443
:104FE00001E29ED804E3D9500C0F81D803D0D950E8
:104FF0000C0F80D8EE26000EED22FF0EE76E56D87D
:10500000E7502B162C6A2BC0C1F2FF0EE76E55D865
:10501000E7502B162C6A2BC0C2F2FF0EE76E54D855
:10502000E7502B162C6A2BC0C3F2FF0EE76E53D845
:10503000E7502B162C6A2BC0C4F2D9CFE1FFE55202
:10504000E7CFD9FF1200A1D8020E226E236AEECF5D
:105050001DF0EDCF1EF03EEC36F01DC0EEFF1EC081
:10506000EDFF12002CC0DBFFDECF2FF0DDCF30F0E4
:10507000000E2F6C301E3022020EDB502F242D6EBE
:10508000030EDB5030202E6E040EDB501200020E99
:10509000DBCF2FF0030EDBCF30F0DE502F242D6E50
:1050A000DD5030202E6E040EDB501200060EDBCFDA
:1050B0002BF0070EDBCF2CF01200080EDBCF2BF00D
:1050C000090EDBCF2CF012000A0EDBCF2BF00B0EFB
:1050D000DBCF2CF012000C0EDBCF2BF00D0EDBCF54
:1050E0002CF012002B507F08000E2C5412004DD8CB
:1050F0007F0E12004AD8800E1200020EDBCF2BF07A
:10510000030EDBCF2CF01200040EDBCF2BF0050ECC
:10511000DBCF2CF01200810E2B5CFF0E2C581200FE
:105120002B500008000E2C5412002FD8E552E750E7
:10513000EE6EED6A120029D8EE6CEF1E000EED2225
:105140001200DECF2BF0DDCF2CF0D8902C501200C7
:105150002D242B6E050EDB502E202C6E12002D5CA4
:105160002B6E050EDB502E582C6E1200800E2B5C21
:10517000000E2C581200080E2B5C000E2C5812004A
:105180002D50F808FF0E2E541200E96EDACFEAFF18
:0251900012000B
:0E51920004DAFE0EDB5007E1EAD9EF507F0889
:1051A00003E2E6D97F0EEF6EFED1F8D9FE0EDB509A
:1051B00009E1DED9EFCF2BF07F0E2B5C03E2D8D9CB
:1051C0007F0EEF6EF0D1EAD902DAD8902C5004E6C7
:1051D000D00E2B5C070E2C5805E20401D00E0C6F8C
:1051E000070E0CD0F4D92C340BE22B50CE08080E4D
:1051F0002C5406E20401CE0E0C6F080E0D6F06D083
:10520000FD0EDBCF0CF4FE0EDBCF0DF40CC42BF047
:105210000DC42CF0D00E2B5E070E2C5A2B50C3D190
:10522000F00EE66E47EC35F0E552938A938893864C
:10523000938499829980938E938C9A849A8299868A
:1052400099849A8A9A8894809A869A8E9A9C919C3C
:1052500002017F0EC86FC76FC66FC56FC46FC36F83
:10526000C26FC16FD06FCF6FCE6FCD6FCC6FCB6F72
:10527000CA6FC96F000EE66EE66AE66EE66AE66E13
:10528000E66AE66EE66ADCEC1EF0F56E080EE15E9C
:10529000F550BAEC32F07BEC31F094EC31F00301D4
:1052A000010E7B6FE8EC0BF070D9A80EE66E420E93
:1052B000E66E000E93D921EF1EF0DD0EE66E020EB3
:1052C000E66E81EC1EF0E552E552CEEC35F012D8D8
:1052D0004DEC24F0D0C2E6FFCFC2E6FFCEC2E6FF1F
:1052E000CDC2E6FF4BEC2CF0E552E552E552E5521B
:1052F000C5EF2AF003015B2B5B512B6E2C6A800EED
:10530000226E236A5BC31DF02CC01EF03EEC36F00B
:1053100019C02BF01AC02CF019501A1019E1870E81
:10532000E66E4CEC35F0E552F3CF2BF0F4CF2CF0D9
:10533000F3CFE6FFF4CFE6FF910EE66E420EE66E87
:10534000000EE66E14EC37F0F56E050EE15EF550DA
:10535000E8EC0BF0C1EC06F0CAEC0AF00201DFB792
:1053600002D00301596B7F0E0201ED5D02E10301E2
:10537000316B060E0201ED5D06E3ED510C0803E30F
:105380000301010E316F1F0E0201ED5D06E3ED51C9
:10539000250803E30301020E316F560E0201ED5D95
:1053A00006E3ED515C0803E30301030E316F1DD9E1
:1053B00004E68D0E2B5C000E2C580DE3ED512D6E86
:1053C0002E6A2E3404E22D509308000E2E5403E36F
:1053D0000301040E316F09D904E6C40E2B5C000EE4
:1053E0002C580DE3ED512D6E2E6A2E3404E22D5013
:1053F000CA08000E2E5403E30301050E316F0201AB
:10540000DF51100B05E0DF51200B02E1030132698F
:105410000201DF51100B06E1DF51200B03E0030115
:10542000010E326F0201DF51100B05E1DF51200B3D
:1054300002E10301326B010EE66EAF0EE66E440E22
:10544000E66E960EE66E6E0EE66EE5C2E6FF97D845
:105450000301356FE66AB60EE66E450EE66E980EEF
:10546000E66E700EE66EE9C2E6FF89D80301336F7F
:10547000E66AB90EE66E5F0EE66EA00EE66E780E78
:10548000E66EF1C2E6FF7BD80301346F0201DF5103
:10549000040B0EE0DF51080B0BE003015A5108E149
:1054A000010E5A6F800EE66E420EE66E000E96D822
:1054B00003015A5105E012EC15F0CEEC35F00BD09B
:1054C000EBC2E6FFE3C2E6FFE7C2E6FF94EC26F09C
:1054D000E552E552E552EEEF33F060D8F90EDB50BD
:1054E00019E0FD0E35D802E362D819E2FB0E30D880
:1054F00003E3FD0E2DD826E3FB0E2AD802E2FE0EB2
:1055000026D02ED804E35BD802E2A30E20D028D800
:105510001EE212D0FD0E1CD804E349D802E37F0E30
:1055200016D0FB0E15D805E3FD0E12D802E23F0E91
:105530000ED0FB0E0DD802E2000E09D011D804E304
:105540003ED802E2BF0E03D00BD801E2FE0E2BD0F4
:10555000DB50F36EFE0EDBCFF4FFF350F45C120071
:10556000FE0EDBCF2BF0FA0EDB50D8802B5412004E
:10557000FC0EDBCFE9FFFD0EDBCFEAFF1200ADDF53
:10558000F56E060EE15EF5501200BD0EE66E020EDF
:10559000E66E9AEC1EF0E552E5521200D9CFE6FF16
:1055A000E1CFD9FF1200E552E7CFD9FF1200FE0E7E
:1055B000DBCF2BF0FC0EDB50D8802B541200FE0EFC
:1055C000DBCF2CF0FC0EDB50D8802C541200FD0EEB
:1055D000DBCF2BF0FE0EDBCF2CF01200E66E14ECCE
:1055E00037F0E552E552E55212000201ED512B6E03
:0855F0002C6AD8902C50120027
:0855F800000EE96EEA6E0400EA
:1056000009EC2BF0EA2A080EEA5CD8A4FFEF2AF096
:105610001200EF6AE93E09EF2BF01200FF0EE3CF14
:1056200009F009380F0B060FD8B2070F2A0FAD6E1D
:10563000D1EC34F009500F0B060FD8B2070F2A0F28
:10564000AD6ED1EC34F0000C1200EACF04F0E9CFDB
:1056500005F0FF0EE3CFEAFFFE0EE3CFE9FFFDA763
:1056600041D0EECFA0F0EECFA1F0EECFA2F0EECF82
:10567000A3F0EECFA4F0EECFA5F0EECFA6F0EECFE4
:10568000A7F0EECFA8F0EECFA9F0EECFAAF0EECFC4
:10569000ABF0EECFACF0EECFADF0EECFAEF0EECFA4
:1056A000AFF0EECFB0F0EECFB1F0EECFB2F0EECF84
:1056B000B3F0EECFB4F0EECFB5F0EECFB6F0EECF64
:1056C000B7F0EECFB8F0EECFB9F0EECFBAF0EECF44
:1056D000BBF0EECFBCF0EECFBDF0EECFBEF0EECF24
:1056E000BFF040D0EECF80F0EECF81F0EECF82F071
:1056F000EECF83F0EECF84F0EECF85F0EECF86F0E4
:10570000EECF87F0EECF88F0EECF89F0EECF8AF0C3
:10571000EECF8BF0EECF8CF0EECF8DF0EECF8EF0A3
:10572000EECF8FF0EECF90F0EECF91F0EECF92F083
:10573000EECF93F0EECF94F0EECF95F0EECF96F063
:10574000EECF97F0EECF98F0EECF99F0EECF9AF043
:10575000EECF9BF0EECF9CF0EECF9DF0EECF9EF023
:10576000EECF9FF004C0EAFF05C0E9FF1200FDA1E3
:105770001200EACF04F0E9CF05F0FF0EE3CFEAFF15
:10578000FE0EE3CFE9FFFDA941D0C0C0EEFFC1C0CE
:10579000EEFFC2C0EEFFC3C0EEFFC4C0EEFFC5C047
:1057A000EEFFC6C0EEFFC7C0EEFFC8C0EEFFC9C027
:1057B000EEFFCAC0EEFFCBC0EEFFCCC0EEFFCDC007
:1057C000EEFFCEC0EEFFCFC0EEFFD0C0EEFFD1C0E7
:1057D000EEFFD2C0EEFFD3C0EEFFD4C0EEFFD5C0C7
:1057E000EEFFD6C0EEFFD7C0EEFFD8C0EEFFD9C0A7
:1057F000EEFFDAC0EEFFDBC0EEFFDCC0EEFFDDC087
:10580000EEFFDEC0EEFFDFC0EEFF40D0E0C0EEFFF7
:10581000E1C0EEFFE2C0EEFFE3C0EEFFE4C0EEFF4A
:10582000E5C0EEFFE6C0EEFFE7C0EEFFE8C0EEFF2A
:10583000E9C0EEFFEAC0EEFFEBC0EEFFECC0EEFF0A
:10584000EDC0EEFFEEC0EEFFEFC0EEFFF0C0EEFFEA
:10585000F1C0EEFFF2C0EEFFF3C0EEFFF4C0EEFFCA
:10586000F5C0EEFFF6C0EEFFF7C0EEFFF8C0EEFFAA
:10587000F9C0EEFFFAC0EEFFFBC0EEFFFCC0EEFF8A
:10588000FDC0EEFFFEC0EEFFFFC0EEFF04C0EAFF6A
:1058900005C0E9FF1200F2B4120016500F0AD8B486
:1058A0001200FF0EE3CF0AF0FE0EE3CF0BF0FD0E69
:1058B000E3CF0CF0FC0EE3CF0DF00A2A16A08D8E7C
:1058C0000B2A16A28F800C2A16A48F860D2A16A6E4
:1058D0008F880E6A0F6A106A116A9EEC2CF00A2EED
:1058E00074EF2CF016A08D9E0B2E79EF2CF016A2E3
:1058F0008F900C2E7EEF2CF016A48F9600000D2EAC
:1059000084EF2CF016A68F9800000E2E89EF2CF055
:10591000129000000F2E8EEF2CF012920000102E2D
:1059200093EF2CF012940000112E98EF2CF01296A9
:10593000C0EC2CF0133E6FEF2CF01200D70E136E5C
:105940000000000000000000B6EC2CF0132EA0EFC9
:105950002CF0D70E136E0000000000000000B6EC23
:105960002CF0132EABEF2CF0000012000000B9EF6A
:105970002CF00000000000000000000000001200F9
:0E598000030E146E0000142EC2EF2CF0120065
:02598E007CD9C2
:10599000E652C80E0201606F616B0E0E646F010E5D
:1059A000656F040E626F636BDF6A6451DF5C08E24F
:1059B000DF5073D9EE6AEE6AEE6AEE6ADF2AF5D737
:1059C000BA6BBB6BBC6B010EC26EC16A860EC06E39
:1059D0009F9C9E9C9D8C60C2E6FF61C2E6FF0BD837
:1059E000E552E552E55255D14FD9E65246D89D9C35
:1059F000C26AE5524ED148D9FD0EDBCF1DF0FE0E36
:105A0000DBCF1EF01D5002E1190E1E1828E0800E9B
:105A10001D1802E10C0E1E181EE0400E1D1802E1BA
:105A2000060E1E1816E0200E1D1802E1030E1E18A9
:105A30000EE0900E1D1802E1010E1E1806E0C80EC1
:105A40001D1811E11E500FE10ED0520E09D0520E5A
:105A500003D0510E05D0510ECA6E450E07D0500E20
:105A6000CA6E8C0E03D06A0ECA6EDD0ECB6ECC6A87
:105A70009F929E929D82CA840CD19D92CA941200DC
:105A800003D9020EE126FE0EDBCF2BF0020164519A
:105A9000D8802B540CE39D9CFE0EDB04E96EEA6A71
:105AA00010D9EECFDEFFEDCFDDFF9D8C02D0DE6A98
:105AB000DD6ADECF2BF0DDCF2CF02BC0F3FF2CC046
:105AC000F4FFD9CFE1FFE5D0DFD8FD0EDBCF2BF01F
:105AD000FE0EDBCF2CF02D6A2E6A880E206E130E80
:105AE000216E226A236A2BC01BF02CC01CF02DC033
:105AF0001DF02EC01EF0A0EC37F017C02BF018C020
:105B00002CF019C02DF01AC02EF0206A080E216E5C
:105B1000226A236A17C01BF018C01CF019C01DF0C0
:105B20001AC01EF064EC36F01BC02BF01CC02CF029
:105B30001DC02DF01EC02EF01BC0F3FF1CC0F4FFD3
:105B4000A8D0A2D8E6529D9C15C4DFFF9D8CDF50E3
:105B5000E5529FD09D9C0401156B9D8C1200C28262
:105B6000120092D8050EE126C450DE6EDD6AD9CF50
:105B7000E9FFDACFEAFFEE50ED6EEF6AC350DE26A2
:105B8000000EDD22DECF2BF0DDCF2CF02D6A2E6A49
:105B90000201BC5182D82B50EE262C50EE222D5003
:105BA000EE222E50EE22BC2B6451BC5D04E3BC6B94
:105BB000BA2B000EBB23020EBCC2DBFFDB50040D70
:105BC000020EF3CFDBFFDB80DB50C26E6251BA5DA9
:105BD0006351BB594AE3030EDB6A040EDB6A67D8E4
:105BE0002CAE02D0D89003D02B5C000E2C5820E2B3
:105BF0003FD8020165511F0BEECF2BF0EECF2CF0FA
:105C0000EECF2DF0EECF2EF007E0D8902E322D32D1
:105C10002C322B32E806F9E15CD853D82BC0EEFFCA
:105C20002CC0EDFF030EDB2A040ED9E3DB2AD7D705
:105C3000030EDB6A040EDB6A3AD82CAE02D0D89091
:105C400003D02B5C000E2C580BE212D8EE6AEE6AE1
:105C5000EE6AEE6A030EDB2A040EEEE3DB2AECD7D3
:105C60000401152B0201BA6BBB6BD9CFE1FF11D038
:105C700030D8D890E936EA36D890E936EA36660E5A
:105C8000E926020EEA221200D9CFE6FFE1CFD9FFC2
:105C90001200E552E7CFD9FF1200040DF3CFE9FF60
:105CA000F4CFEAFF660EE926020EEA221200030E86
:105CB000DBCF2BF0040EDBCF2CF00201645100018E
:105CC0001200D890E936EA369E0EE926020EEA2244
:105CD0001200030EDBCFE9FF040EDBCFEAFF120058
:105CE000D8CFE4FFE0CFE4FFE46EDACFE4FFE2CF09
:105CF000DAFFE9CFE4FFEACFE4FFF3CFE4FFF4CF2C
:105D0000E4FFE652D9CFE6FFE1CFD9FF020EE1264C
:105D10009E50200B06E09D50200B03E02FEC32F04C
:105D200074D0A450200B06E0A350200B03E04EECEF
:105D300032F06BD09E50100B06E09D50100B03E02C
:105D40006DEC32F062D0A450100B06E0A350100BA3
:105D500003E085EC32F059D0F050020B07E0F05030
:105D6000100B04E0F092E4EC32F04FD0F050040B52
:105D700007E0F050200B04E0F0940BEC33F045D03A
:105D8000F250010B42E0F250080B3FE08150DF6E11
:105D9000F290DF500301AC19E76E010EE7CFDBFF95
:105DA000DFCFACF3DBA80AD0100EDF1402E0010E47
:105DB00001D0000EE66E32EC33F0E552010EDBAAA4
:105DC0000AD0200EDF1402E0010E01D0000EE66EB4
:105DD0005FEC33F0E552010EDBAC0AD0400EDF146D
:105DE00002E0010E01D0000EE66E8CEC33F0E552BD
:105DF000010EDBAE0AD0800EDF1402E0010E01D0EE
:105E0000000EE66EB9EC33F0E552D9CFE1FFE55272
:105E1000E7CFD9FFE552E5CFF4FFE5CFF3FFE5CFBC
:105E2000EAFFE5CFE9FFE5CFDAFFE550E5CFE0FF98
:105E3000E5CFD8FF1000D9CFE6FFE1CFD9FF050E9F
:105E4000E12602017F0EC86FC76FC66FC56FC46FB2
:105E5000C36FC26FC16FD06FCF6FCE6FCD6FCC6F7E
:105E6000CB6FCA6FC96F8C928D928C908D908C96EF
:105E70008D968C948D948C9A8D9A8C988D988C9EFE
:105E800091908C9C8D9C0201DEADAED0010EDF6E38
:105E9000DE52050EDD6E0A0EF36E040EF3CFDBFF4D
:105EA000DB2A140EF36E040EDBCFF4FFF350F45C28
:105EB0000DE3040EDB6A0201FD51010BE66EE66A9A
:105EC0005F0EE66E420EE66E000E9BD80201FDA14B
:105ED000DAD7DD0EE66E020EE66E81EC1EF0E552BC
:105EE000E552D0C2E6FFCFC2E6FFCEC2E6FFCDC28A
:105EF000E6FF4BEC2CF0E552E552E552E552BD0EC3
:105F0000E66E020EE66E9AEC1EF0E552E552AFEC3C
:105F10000AF00301F95113E17AEC1CF0F3CFF7F327
:105F2000F4CFF8F30301010EF96FF3CFE6FFF4CFDE
:105F3000E6FF410EE66E420EE66E000E62D8060ED9
:105F40000301F71901E1F85134E0050EF71901E1F9
:105F5000F8512AE0040EF71901E1F8511EE0030E92
:105F6000F71901E1F85115E0020EF71901E1F851B6
:105F700007E0010EF71901E1F85101E184D728D0BB
:105F8000030EF66F010EF56FF6C3E6FF1EEC1DF073
:105F900029D0E66AFDEC1CF025D0040EF66F010E48
:105FA000F56FBBEC19F06FD7010EE66EFDEC1CF03F
:105FB000E5520301020EF66F010EF56F030EE66E59
:105FC0001EEC1DF0E552F6C3E6FF1EEC1DF0E55297
:105FD000160EE66E420EE66E000EE66E14EC37F01C
:105FE000E552E552E5524FD7D9CFE1FFE552E7CF71
:105FF000D9FF12001200D9CFE6FFE552E7CFD9FF53
:106000001200E66E14EC37F0F56E050EE15EF55009
:0260100012007C
:0E60120003010151E66EE66A0051E66EE66A91
:10602000780EE66E480EE66E000E44D90301035169
:10603000E66EE66A0251E66EE66A4C0EE66E480EC1
:10604000E66E000E37D903010551E66EE66A04518B
:10605000E66EE66A1F0EE66E480EE66E000E2AD960
:1060600003010651E66EE66A070EE66E480EE66E1E
:10607000000E28D903010751E66EE66AF40EE66EBB
:10608000470EE66E000E62EF31F024D9020EE126D3
:10609000010EDB6ADB2ADB500301FF5D0CE1FE0E23
:1060A000DBCFE6FFE66ACB0EE66E470EE66E000E2D
:1060B00009D9010EDB6A460EE4D806E3FE0EDB507A
:1060C0005A0802E3740E06D0460EDBD802E26C0ECC
:1060D00001D0720EDF6EDF50D9CFE1FF00D1FAD8C8
:1060E000E652060E0301065D02E2DF6A25D0DDD826
:1060F000020806E3FD0ECCD801E6F5D819E20BD074
:10610000D4D805080AE3D1D8020807E2FD0EC0D8AA
:1061100001E6E9D80DE2020E0ED0C7D809080CE35B
:10612000C4D8050809E2FD0EB3D801E6DCD802E3C5
:10613000010E01D0020EDF6EDF50E552D0D0CAD87A
:10614000E652D6D804E6E60E2B5C000E2C5802E38D
:10615000DF6A69D0CDD804E6C80E2B5C000E2C583F
:1061600009E39CD804E6E60E2D5C000E2E5802E2F0
:10617000010E58D0BDD801E6B6D809E38FD804E6A1
:10618000C80E2D5C000E2E5802E2020E4BD0B0D885
:1061900004E6A00E2B5C000E2C5809E37FD804E621
:1061A000B40E2D5C000E2E5802E2030E3BD0A0D898
:1061B00004E6850E2B5C000E2C5809E36FD804E62C
:1061C000A00E2D5C000E2E5802E2040E2BD06B0E9A
:1061D00058D809E38DD804E6850E2B5C000E2C58A8
:1061E00002E2050E1FD0500E4CD805E36B0E49D8C5
:1061F00002E2060E17D0350E44D805E3500E41D802
:1062000002E2070E0FD01B0E3CD805E3350E39D83D
:1062100002E2080E07D0020E34D805E31B0E31D877
:1062200002E2090EDF6EDF50E55259D053D8030E5B
:10623000E126FE0EDB5005E1EF0EE66E9F0EE66EE8
:1062400012D002C3DFFF010E04C3DBFFDB50DF24EB
:10625000FE0BE842E76E020EE7CFDBFFEF0EE66EC5
:10626000020EDBCFE6FF010EE66EE66E48EC26F08E
:10627000E552E552E552E552020EDB50D9CFE1FF7F
:106280002ED0F36EFE0EDBCFF4FFF350F45C120061
